{
	"tipjar.sol": {
		"tips": {
			"abi": [
				{
					"inputs": [],
					"stateMutability": "nonpayable",
					"type": "constructor"
				},
				{
					"inputs": [
						{
							"internalType": "address payable",
							"name": "walletAddress",
							"type": "address"
						},
						{
							"internalType": "string",
							"name": "name",
							"type": "string"
						},
						{
							"internalType": "uint256",
							"name": "percent",
							"type": "uint256"
						}
					],
					"name": "addWaitress",
					"outputs": [],
					"stateMutability": "nonpayable",
					"type": "function"
				},
				{
					"inputs": [],
					"name": "addtips",
					"outputs": [],
					"stateMutability": "payable",
					"type": "function"
				},
				{
					"inputs": [
						{
							"internalType": "address",
							"name": "walletAddress",
							"type": "address"
						}
					],
					"name": "removeWaitress",
					"outputs": [],
					"stateMutability": "nonpayable",
					"type": "function"
				},
				{
					"inputs": [],
					"name": "viewWaitress",
					"outputs": [
						{
							"components": [
								{
									"internalType": "address payable",
									"name": "walletAddress",
									"type": "address"
								},
								{
									"internalType": "string",
									"name": "name",
									"type": "string"
								},
								{
									"internalType": "uint256",
									"name": "percent",
									"type": "uint256"
								}
							],
							"internalType": "struct tips.Waitress[]",
							"name": "",
							"type": "tuple[]"
						}
					],
					"stateMutability": "view",
					"type": "function"
				},
				{
					"inputs": [],
					"name": "viewtips",
					"outputs": [
						{
							"internalType": "uint256",
							"name": "",
							"type": "uint256"
						}
					],
					"stateMutability": "view",
					"type": "function"
				}
			],
			"devdoc": {
				"kind": "dev",
				"methods": {},
				"version": 1
			},
			"evm": {
				"assembly": "    /* \"tipjar.sol\":58:2441  contract tips {... */\n  mstore(0x40, 0x80)\n    /* \"tipjar.sol\":98:147  constructor() {... */\n  callvalue\n  dup1\n  iszero\n  tag_1\n  jumpi\n  revert(0x00, 0x00)\ntag_1:\n  pop\n    /* \"tipjar.sol\":130:140  msg.sender */\n  caller\n    /* \"tipjar.sol\":122:127  owner */\n  0x00\n  0x00\n    /* \"tipjar.sol\":122:140  owner = msg.sender */\n  0x0100\n  exp\n  dup2\n  sload\n  dup2\n  0xffffffffffffffffffffffffffffffffffffffff\n  mul\n  not\n  and\n  swap1\n  dup4\n  0xffffffffffffffffffffffffffffffffffffffff\n  and\n  mul\n  or\n  swap1\n  sstore\n  pop\n    /* \"tipjar.sol\":58:2441  contract tips {... */\n  dataSize(sub_0)\n  dup1\n  dataOffset(sub_0)\n  0x00\n  codecopy\n  0x00\n  return\nstop\n\nsub_0: assembly {\n        /* \"tipjar.sol\":58:2441  contract tips {... */\n      mstore(0x40, 0x80)\n      jumpi(tag_1, lt(calldatasize, 0x04))\n      shr(0xe0, calldataload(0x00))\n      dup1\n      0x2a08deda\n      eq\n      tag_2\n      jumpi\n      dup1\n      0x369a489d\n      eq\n      tag_3\n      jumpi\n      dup1\n      0x6e7301fd\n      eq\n      tag_4\n      jumpi\n      dup1\n      0xb499b79a\n      eq\n      tag_5\n      jumpi\n      dup1\n      0xe83a1b00\n      eq\n      tag_6\n      jumpi\n    tag_1:\n      revert(0x00, 0x00)\n        /* \"tipjar.sol\":257:349  function viewtips() public view returns (uint) {... */\n    tag_2:\n      callvalue\n      dup1\n      iszero\n      tag_7\n      jumpi\n      revert(0x00, 0x00)\n    tag_7:\n      pop\n      tag_8\n      tag_9\n      jump\t// in\n    tag_8:\n      mload(0x40)\n      tag_10\n      swap2\n      swap1\n      tag_11\n      jump\t// in\n    tag_10:\n      mload(0x40)\n      dup1\n      swap2\n      sub\n      swap1\n      return\n        /* \"tipjar.sol\":1347:1874  function removeWaitress(address walletAddress) public onlyOwner {... */\n    tag_3:\n      callvalue\n      dup1\n      iszero\n      tag_12\n      jumpi\n      revert(0x00, 0x00)\n    tag_12:\n      pop\n      tag_13\n      0x04\n      dup1\n      calldatasize\n      sub\n      dup2\n      add\n      swap1\n      tag_14\n      swap2\n      swap1\n      tag_15\n      jump\t// in\n    tag_14:\n      tag_16\n      jump\t// in\n    tag_13:\n      stop\n        /* \"tipjar.sol\":191:227  function addtips() public payable {} */\n    tag_4:\n      tag_17\n      tag_18\n      jump\t// in\n    tag_17:\n      stop\n        /* \"tipjar.sol\":790:1341  function addWaitress(... */\n    tag_5:\n      callvalue\n      dup1\n      iszero\n      tag_19\n      jumpi\n      revert(0x00, 0x00)\n    tag_19:\n      pop\n      tag_20\n      0x04\n      dup1\n      calldatasize\n      sub\n      dup2\n      add\n      swap1\n      tag_21\n      swap2\n      swap1\n      tag_22\n      jump\t// in\n    tag_21:\n      tag_23\n      jump\t// in\n    tag_20:\n      stop\n        /* \"tipjar.sol\":581:677  function viewWaitress() public view returns (Waitress[] memory) {... */\n    tag_6:\n      callvalue\n      dup1\n      iszero\n      tag_24\n      jumpi\n      revert(0x00, 0x00)\n    tag_24:\n      pop\n      tag_25\n      tag_26\n      jump\t// in\n    tag_25:\n      mload(0x40)\n      tag_27\n      swap2\n      swap1\n      tag_28\n      jump\t// in\n    tag_27:\n      mload(0x40)\n      dup1\n      swap2\n      sub\n      swap1\n      return\n        /* \"tipjar.sol\":257:349  function viewtips() public view returns (uint) {... */\n    tag_9:\n        /* \"tipjar.sol\":298:302  uint */\n      0x00\n        /* \"tipjar.sol\":321:342  address(this).balance */\n      selfbalance\n        /* \"tipjar.sol\":314:342  return address(this).balance */\n      swap1\n      pop\n        /* \"tipjar.sol\":257:349  function viewtips() public view returns (uint) {... */\n      swap1\n      jump\t// out\n        /* \"tipjar.sol\":1347:1874  function removeWaitress(address walletAddress) public onlyOwner {... */\n    tag_16:\n        /* \"tipjar.sol\":736:741  owner */\n      0x00\n      0x00\n      swap1\n      sload\n      swap1\n      0x0100\n      exp\n      swap1\n      div\n      0xffffffffffffffffffffffffffffffffffffffff\n      and\n        /* \"tipjar.sol\":722:741  msg.sender == owner */\n      0xffffffffffffffffffffffffffffffffffffffff\n      and\n        /* \"tipjar.sol\":722:732  msg.sender */\n      caller\n        /* \"tipjar.sol\":722:741  msg.sender == owner */\n      0xffffffffffffffffffffffffffffffffffffffff\n      and\n      eq\n        /* \"tipjar.sol\":714:765  require(msg.sender == owner, \"Only owner can call\") */\n      tag_31\n      jumpi\n      mload(0x40)\n      0x08c379a000000000000000000000000000000000000000000000000000000000\n      dup2\n      mstore\n      0x04\n      add\n      tag_32\n      swap1\n      tag_33\n      jump\t// in\n    tag_32:\n      mload(0x40)\n      dup1\n      swap2\n      sub\n      swap1\n      revert\n    tag_31:\n        /* \"tipjar.sol\":1444:1445  1 */\n      0x01\n        /* \"tipjar.sol\":1425:1433  waitress */\n      dup1\n        /* \"tipjar.sol\":1425:1440  waitress.length */\n      dup1\n      sload\n      swap1\n      pop\n        /* \"tipjar.sol\":1425:1445  waitress.length >= 1 */\n      lt\n        /* \"tipjar.sol\":1421:1868  if (waitress.length >= 1) {... */\n      tag_35\n      jumpi\n        /* \"tipjar.sol\":1466:1472  uint i */\n      0x00\n        /* \"tipjar.sol\":1475:1476  0 */\n      0x00\n        /* \"tipjar.sol\":1466:1476  uint i = 0 */\n      swap1\n      pop\n        /* \"tipjar.sol\":1461:1858  for (uint i = 0; i < waitress.length; i++) {... */\n    tag_36:\n        /* \"tipjar.sol\":1482:1490  waitress */\n      0x01\n        /* \"tipjar.sol\":1482:1497  waitress.length */\n      dup1\n      sload\n      swap1\n      pop\n        /* \"tipjar.sol\":1478:1479  i */\n      dup2\n        /* \"tipjar.sol\":1478:1497  i < waitress.length */\n      lt\n        /* \"tipjar.sol\":1461:1858  for (uint i = 0; i < waitress.length; i++) {... */\n      iszero\n      tag_37\n      jumpi\n        /* \"tipjar.sol\":1555:1568  walletAddress */\n      dup2\n        /* \"tipjar.sol\":1526:1568  waitress[i].walletAddress == walletAddress */\n      0xffffffffffffffffffffffffffffffffffffffff\n      and\n        /* \"tipjar.sol\":1526:1534  waitress */\n      0x01\n        /* \"tipjar.sol\":1535:1536  i */\n      dup3\n        /* \"tipjar.sol\":1526:1537  waitress[i] */\n      dup2\n      sload\n      dup2\n      lt\n      tag_39\n      jumpi\n      tag_40\n      tag_41\n      jump\t// in\n    tag_40:\n    tag_39:\n      swap1\n      0x00\n      mstore\n      keccak256(0x00, 0x20)\n      swap1\n      0x03\n      mul\n      add\n        /* \"tipjar.sol\":1526:1551  waitress[i].walletAddress */\n      0x00\n      add\n      0x00\n      swap1\n      sload\n      swap1\n      0x0100\n      exp\n      swap1\n      div\n      0xffffffffffffffffffffffffffffffffffffffff\n      and\n        /* \"tipjar.sol\":1526:1568  waitress[i].walletAddress == walletAddress */\n      0xffffffffffffffffffffffffffffffffffffffff\n      and\n      sub\n        /* \"tipjar.sol\":1522:1844  if (waitress[i].walletAddress == walletAddress) {... */\n      tag_43\n      jumpi\n        /* \"tipjar.sol\":1641:1647  uint j */\n      0x00\n        /* \"tipjar.sol\":1650:1651  i */\n      dup2\n        /* \"tipjar.sol\":1641:1651  uint j = i */\n      swap1\n      pop\n        /* \"tipjar.sol\":1636:1761  for (uint j = i; j < waitress.length - 1; j++) {... */\n    tag_44:\n        /* \"tipjar.sol\":1675:1676  1 */\n      0x01\n        /* \"tipjar.sol\":1657:1665  waitress */\n      dup1\n        /* \"tipjar.sol\":1657:1672  waitress.length */\n      dup1\n      sload\n      swap1\n      pop\n        /* \"tipjar.sol\":1657:1676  waitress.length - 1 */\n      tag_47\n      swap2\n      swap1\n      tag_48\n      jump\t// in\n    tag_47:\n        /* \"tipjar.sol\":1653:1654  j */\n      dup2\n        /* \"tipjar.sol\":1653:1676  j < waitress.length - 1 */\n      lt\n        /* \"tipjar.sol\":1636:1761  for (uint j = i; j < waitress.length - 1; j++) {... */\n      iszero\n      tag_45\n      jumpi\n        /* \"tipjar.sol\":1723:1731  waitress */\n      0x01\n        /* \"tipjar.sol\":1736:1737  1 */\n      dup1\n        /* \"tipjar.sol\":1732:1733  j */\n      dup3\n        /* \"tipjar.sol\":1732:1737  j + 1 */\n      tag_49\n      swap2\n      swap1\n      tag_50\n      jump\t// in\n    tag_49:\n        /* \"tipjar.sol\":1723:1738  waitress[j + 1] */\n      dup2\n      sload\n      dup2\n      lt\n      tag_51\n      jumpi\n      tag_52\n      tag_41\n      jump\t// in\n    tag_52:\n    tag_51:\n      swap1\n      0x00\n      mstore\n      keccak256(0x00, 0x20)\n      swap1\n      0x03\n      mul\n      add\n        /* \"tipjar.sol\":1709:1717  waitress */\n      0x01\n        /* \"tipjar.sol\":1718:1719  j */\n      dup3\n        /* \"tipjar.sol\":1709:1720  waitress[j] */\n      dup2\n      sload\n      dup2\n      lt\n      tag_54\n      jumpi\n      tag_55\n      tag_41\n      jump\t// in\n    tag_55:\n    tag_54:\n      swap1\n      0x00\n      mstore\n      keccak256(0x00, 0x20)\n      swap1\n      0x03\n      mul\n      add\n        /* \"tipjar.sol\":1709:1738  waitress[j] = waitress[j + 1] */\n      0x00\n      dup3\n      add\n      0x00\n      swap1\n      sload\n      swap1\n      0x0100\n      exp\n      swap1\n      div\n      0xffffffffffffffffffffffffffffffffffffffff\n      and\n      dup2\n      0x00\n      add\n      exp(0x0100, 0x00)\n      dup2\n      sload\n      dup2\n      0xffffffffffffffffffffffffffffffffffffffff\n      mul\n      not\n      and\n      swap1\n      dup4\n      0xffffffffffffffffffffffffffffffffffffffff\n      and\n      mul\n      or\n      swap1\n      sstore\n      pop\n      0x01\n      dup3\n      add\n      dup2\n      0x01\n      add\n      swap1\n      dup2\n      tag_57\n      swap2\n      swap1\n      tag_58\n      jump\t// in\n    tag_57:\n      pop\n      0x02\n      dup3\n      add\n      sload\n      dup2\n      0x02\n      add\n      sstore\n      swap1\n      pop\n      pop\n        /* \"tipjar.sol\":1678:1681  j++ */\n      dup1\n      dup1\n      0x01\n      add\n      swap2\n      pop\n      pop\n        /* \"tipjar.sol\":1636:1761  for (uint j = i; j < waitress.length - 1; j++) {... */\n      jump(tag_44)\n    tag_45:\n      pop\n        /* \"tipjar.sol\":1783:1791  waitress */\n      0x01\n        /* \"tipjar.sol\":1783:1797  waitress.pop() */\n      dup1\n      sload\n      dup1\n      tag_59\n      jumpi\n      tag_60\n      tag_61\n      jump\t// in\n    tag_60:\n    tag_59:\n      0x01\n      swap1\n      sub\n      dup2\n      dup2\n      swap1\n      0x00\n      mstore\n      keccak256(0x00, 0x20)\n      swap1\n      0x03\n      mul\n      add\n      0x00\n      0x00\n      dup3\n      add\n      exp(0x0100, 0x00)\n      dup2\n      sload\n      swap1\n      0xffffffffffffffffffffffffffffffffffffffff\n      mul\n      not\n      and\n      swap1\n      sstore\n      0x01\n      dup3\n      add\n      0x00\n      tag_63\n      swap2\n      swap1\n      tag_64\n      jump\t// in\n    tag_63:\n      0x02\n      dup3\n      add\n      0x00\n      swap1\n      sstore\n      pop\n      pop\n      swap1\n      sstore\n        /* \"tipjar.sol\":1820:1825  break */\n      jump(tag_37)\n        /* \"tipjar.sol\":1522:1844  if (waitress[i].walletAddress == walletAddress) {... */\n    tag_43:\n        /* \"tipjar.sol\":1499:1502  i++ */\n      dup1\n      dup1\n      0x01\n      add\n      swap2\n      pop\n      pop\n        /* \"tipjar.sol\":1461:1858  for (uint i = 0; i < waitress.length; i++) {... */\n      jump(tag_36)\n    tag_37:\n      pop\n        /* \"tipjar.sol\":1421:1868  if (waitress.length >= 1) {... */\n    tag_35:\n        /* \"tipjar.sol\":1347:1874  function removeWaitress(address walletAddress) public onlyOwner {... */\n      pop\n      jump\t// out\n        /* \"tipjar.sol\":191:227  function addtips() public payable {} */\n    tag_18:\n      jump\t// out\n        /* \"tipjar.sol\":790:1341  function addWaitress(... */\n    tag_23:\n        /* \"tipjar.sol\":736:741  owner */\n      0x00\n      0x00\n      swap1\n      sload\n      swap1\n      0x0100\n      exp\n      swap1\n      div\n      0xffffffffffffffffffffffffffffffffffffffff\n      and\n        /* \"tipjar.sol\":722:741  msg.sender == owner */\n      0xffffffffffffffffffffffffffffffffffffffff\n      and\n        /* \"tipjar.sol\":722:732  msg.sender */\n      caller\n        /* \"tipjar.sol\":722:741  msg.sender == owner */\n      0xffffffffffffffffffffffffffffffffffffffff\n      and\n      eq\n        /* \"tipjar.sol\":714:765  require(msg.sender == owner, \"Only owner can call\") */\n      tag_67\n      jumpi\n      mload(0x40)\n      0x08c379a000000000000000000000000000000000000000000000000000000000\n      dup2\n      mstore\n      0x04\n      add\n      tag_68\n      swap1\n      tag_33\n      jump\t// in\n    tag_68:\n      mload(0x40)\n      dup1\n      swap2\n      sub\n      swap1\n      revert\n    tag_67:\n        /* \"tipjar.sol\":933:951  bool waitressExist */\n      0x00\n        /* \"tipjar.sol\":954:959  false */\n      0x00\n        /* \"tipjar.sol\":933:959  bool waitressExist = false */\n      swap1\n      pop\n        /* \"tipjar.sol\":993:994  1 */\n      0x01\n        /* \"tipjar.sol\":974:982  waitress */\n      dup1\n        /* \"tipjar.sol\":974:989  waitress.length */\n      dup1\n      sload\n      swap1\n      pop\n        /* \"tipjar.sol\":974:994  waitress.length >= 1 */\n      lt\n        /* \"tipjar.sol\":970:1204  if (waitress.length >= 1) {... */\n      tag_70\n      jumpi\n        /* \"tipjar.sol\":1015:1021  uint i */\n      0x00\n        /* \"tipjar.sol\":1024:1025  0 */\n      0x00\n        /* \"tipjar.sol\":1015:1025  uint i = 0 */\n      swap1\n      pop\n        /* \"tipjar.sol\":1010:1194  for (uint i = 0; i < waitress.length; i++) {... */\n    tag_71:\n        /* \"tipjar.sol\":1031:1039  waitress */\n      0x01\n        /* \"tipjar.sol\":1031:1046  waitress.length */\n      dup1\n      sload\n      swap1\n      pop\n        /* \"tipjar.sol\":1027:1028  i */\n      dup2\n        /* \"tipjar.sol\":1027:1046  i < waitress.length */\n      lt\n        /* \"tipjar.sol\":1010:1194  for (uint i = 0; i < waitress.length; i++) {... */\n      iszero\n      tag_72\n      jumpi\n        /* \"tipjar.sol\":1104:1117  walletAddress */\n      dup5\n        /* \"tipjar.sol\":1075:1117  waitress[i].walletAddress == walletAddress */\n      0xffffffffffffffffffffffffffffffffffffffff\n      and\n        /* \"tipjar.sol\":1075:1083  waitress */\n      0x01\n        /* \"tipjar.sol\":1084:1085  i */\n      dup3\n        /* \"tipjar.sol\":1075:1086  waitress[i] */\n      dup2\n      sload\n      dup2\n      lt\n      tag_74\n      jumpi\n      tag_75\n      tag_41\n      jump\t// in\n    tag_75:\n    tag_74:\n      swap1\n      0x00\n      mstore\n      keccak256(0x00, 0x20)\n      swap1\n      0x03\n      mul\n      add\n        /* \"tipjar.sol\":1075:1100  waitress[i].walletAddress */\n      0x00\n      add\n      0x00\n      swap1\n      sload\n      swap1\n      0x0100\n      exp\n      swap1\n      div\n      0xffffffffffffffffffffffffffffffffffffffff\n      and\n        /* \"tipjar.sol\":1075:1117  waitress[i].walletAddress == walletAddress */\n      0xffffffffffffffffffffffffffffffffffffffff\n      and\n      sub\n        /* \"tipjar.sol\":1071:1180  if (waitress[i].walletAddress == walletAddress) {... */\n      tag_77\n      jumpi\n        /* \"tipjar.sol\":1157:1161  true */\n      0x01\n        /* \"tipjar.sol\":1141:1161  waitressExist = true */\n      swap2\n      pop\n        /* \"tipjar.sol\":1071:1180  if (waitress[i].walletAddress == walletAddress) {... */\n    tag_77:\n        /* \"tipjar.sol\":1048:1051  i++ */\n      dup1\n      dup1\n      0x01\n      add\n      swap2\n      pop\n      pop\n        /* \"tipjar.sol\":1010:1194  for (uint i = 0; i < waitress.length; i++) {... */\n      jump(tag_71)\n    tag_72:\n      pop\n        /* \"tipjar.sol\":970:1204  if (waitress.length >= 1) {... */\n    tag_70:\n        /* \"tipjar.sol\":1250:1255  false */\n      0x00\n        /* \"tipjar.sol\":1233:1255  waitressExist == false */\n      iszero\n      iszero\n        /* \"tipjar.sol\":1233:1246  waitressExist */\n      dup2\n        /* \"tipjar.sol\":1233:1255  waitressExist == false */\n      iszero\n      iszero\n      sub\n        /* \"tipjar.sol\":1229:1335  if (waitressExist == false) {... */\n      tag_78\n      jumpi\n        /* \"tipjar.sol\":1271:1279  waitress */\n      0x01\n        /* \"tipjar.sol\":1285:1323  Waitress(walletAddress, name, percent) */\n      mload(0x40)\n      dup1\n      0x60\n      add\n      0x40\n      mstore\n      dup1\n        /* \"tipjar.sol\":1294:1307  walletAddress */\n      dup7\n        /* \"tipjar.sol\":1285:1323  Waitress(walletAddress, name, percent) */\n      0xffffffffffffffffffffffffffffffffffffffff\n      and\n      dup2\n      mstore\n      0x20\n      add\n        /* \"tipjar.sol\":1309:1313  name */\n      dup6\n        /* \"tipjar.sol\":1285:1323  Waitress(walletAddress, name, percent) */\n      dup2\n      mstore\n      0x20\n      add\n        /* \"tipjar.sol\":1315:1322  percent */\n      dup5\n        /* \"tipjar.sol\":1285:1323  Waitress(walletAddress, name, percent) */\n      dup2\n      mstore\n      pop\n        /* \"tipjar.sol\":1271:1324  waitress.push(Waitress(walletAddress, name, percent)) */\n      swap1\n      dup1\n      0x01\n      dup2\n      sload\n      add\n      dup1\n      dup3\n      sstore\n      dup1\n      swap2\n      pop\n      pop\n      0x01\n      swap1\n      sub\n      swap1\n      0x00\n      mstore\n      keccak256(0x00, 0x20)\n      swap1\n      0x03\n      mul\n      add\n      0x00\n      swap1\n      swap2\n      swap1\n      swap2\n      swap1\n      swap2\n      pop\n      0x00\n      dup3\n      add\n      mload\n      dup2\n      0x00\n      add\n      exp(0x0100, 0x00)\n      dup2\n      sload\n      dup2\n      0xffffffffffffffffffffffffffffffffffffffff\n      mul\n      not\n      and\n      swap1\n      dup4\n      0xffffffffffffffffffffffffffffffffffffffff\n      and\n      mul\n      or\n      swap1\n      sstore\n      pop\n      0x20\n      dup3\n      add\n      mload\n      dup2\n      0x01\n      add\n      swap1\n      dup2\n      tag_80\n      swap2\n      swap1\n      tag_81\n      jump\t// in\n    tag_80:\n      pop\n      0x40\n      dup3\n      add\n      mload\n      dup2\n      0x02\n      add\n      sstore\n      pop\n      pop\n        /* \"tipjar.sol\":1229:1335  if (waitressExist == false) {... */\n    tag_78:\n        /* \"tipjar.sol\":923:1341  {... */\n      pop\n        /* \"tipjar.sol\":790:1341  function addWaitress(... */\n      pop\n      pop\n      pop\n      jump\t// out\n        /* \"tipjar.sol\":581:677  function viewWaitress() public view returns (Waitress[] memory) {... */\n    tag_26:\n        /* \"tipjar.sol\":626:643  Waitress[] memory */\n      0x60\n        /* \"tipjar.sol\":662:670  waitress */\n      0x01\n        /* \"tipjar.sol\":655:670  return waitress */\n      dup1\n      sload\n      dup1\n      0x20\n      mul\n      0x20\n      add\n      mload(0x40)\n      swap1\n      dup2\n      add\n      0x40\n      mstore\n      dup1\n      swap3\n      swap2\n      swap1\n      dup2\n      dup2\n      mstore\n      0x20\n      add\n      0x00\n      swap1\n    tag_83:\n      dup3\n      dup3\n      lt\n      iszero\n      tag_84\n      jumpi\n      dup4\n      dup3\n      swap1\n      0x00\n      mstore\n      keccak256(0x00, 0x20)\n      swap1\n      0x03\n      mul\n      add\n      mload(0x40)\n      dup1\n      0x60\n      add\n      0x40\n      mstore\n      swap1\n      dup2\n      0x00\n      dup3\n      add\n      0x00\n      swap1\n      sload\n      swap1\n      0x0100\n      exp\n      swap1\n      div\n      0xffffffffffffffffffffffffffffffffffffffff\n      and\n      0xffffffffffffffffffffffffffffffffffffffff\n      and\n      0xffffffffffffffffffffffffffffffffffffffff\n      and\n      dup2\n      mstore\n      0x20\n      add\n      0x01\n      dup3\n      add\n      dup1\n      sload\n      tag_86\n      swap1\n      tag_87\n      jump\t// in\n    tag_86:\n      dup1\n      0x1f\n      add\n      0x20\n      dup1\n      swap2\n      div\n      mul\n      0x20\n      add\n      mload(0x40)\n      swap1\n      dup2\n      add\n      0x40\n      mstore\n      dup1\n      swap3\n      swap2\n      swap1\n      dup2\n      dup2\n      mstore\n      0x20\n      add\n      dup3\n      dup1\n      sload\n      tag_88\n      swap1\n      tag_87\n      jump\t// in\n    tag_88:\n      dup1\n      iszero\n      tag_89\n      jumpi\n      dup1\n      0x1f\n      lt\n      tag_90\n      jumpi\n      0x0100\n      dup1\n      dup4\n      sload\n      div\n      mul\n      dup4\n      mstore\n      swap2\n      0x20\n      add\n      swap2\n      jump(tag_89)\n    tag_90:\n      dup3\n      add\n      swap2\n      swap1\n      0x00\n      mstore\n      keccak256(0x00, 0x20)\n      swap1\n    tag_91:\n      dup2\n      sload\n      dup2\n      mstore\n      swap1\n      0x01\n      add\n      swap1\n      0x20\n      add\n      dup1\n      dup4\n      gt\n      tag_91\n      jumpi\n      dup3\n      swap1\n      sub\n      0x1f\n      and\n      dup3\n      add\n      swap2\n    tag_89:\n      pop\n      pop\n      pop\n      pop\n      pop\n      dup2\n      mstore\n      0x20\n      add\n      0x02\n      dup3\n      add\n      sload\n      dup2\n      mstore\n      pop\n      pop\n      dup2\n      mstore\n      0x20\n      add\n      swap1\n      0x01\n      add\n      swap1\n      jump(tag_83)\n    tag_84:\n      pop\n      pop\n      pop\n      pop\n      swap1\n      pop\n        /* \"tipjar.sol\":581:677  function viewWaitress() public view returns (Waitress[] memory) {... */\n      swap1\n      jump\t// out\n    tag_64:\n      pop\n      dup1\n      sload\n      tag_92\n      swap1\n      tag_87\n      jump\t// in\n    tag_92:\n      0x00\n      dup3\n      sstore\n      dup1\n      0x1f\n      lt\n      tag_94\n      jumpi\n      pop\n      jump(tag_93)\n    tag_94:\n      0x1f\n      add\n      0x20\n      swap1\n      div\n      swap1\n      0x00\n      mstore\n      keccak256(0x00, 0x20)\n      swap1\n      dup2\n      add\n      swap1\n      tag_95\n      swap2\n      swap1\n      tag_96\n      jump\t// in\n    tag_95:\n    tag_93:\n      pop\n      jump\t// out\n    tag_96:\n    tag_97:\n      dup1\n      dup3\n      gt\n      iszero\n      tag_98\n      jumpi\n      0x00\n      dup2\n      0x00\n      swap1\n      sstore\n      pop\n      0x01\n      add\n      jump(tag_97)\n    tag_98:\n      pop\n      swap1\n      jump\t// out\n        /* \"#utility.yul\":7:84   */\n    tag_99:\n        /* \"#utility.yul\":44:51   */\n      0x00\n        /* \"#utility.yul\":73:78   */\n      dup2\n        /* \"#utility.yul\":62:78   */\n      swap1\n      pop\n        /* \"#utility.yul\":7:84   */\n      swap2\n      swap1\n      pop\n      jump\t// out\n        /* \"#utility.yul\":90:208   */\n    tag_100:\n        /* \"#utility.yul\":177:201   */\n      tag_160\n        /* \"#utility.yul\":195:200   */\n      dup2\n        /* \"#utility.yul\":177:201   */\n      tag_99\n      jump\t// in\n    tag_160:\n        /* \"#utility.yul\":172:175   */\n      dup3\n        /* \"#utility.yul\":165:202   */\n      mstore\n        /* \"#utility.yul\":90:208   */\n      pop\n      pop\n      jump\t// out\n        /* \"#utility.yul\":214:436   */\n    tag_11:\n        /* \"#utility.yul\":307:311   */\n      0x00\n        /* \"#utility.yul\":345:347   */\n      0x20\n        /* \"#utility.yul\":334:343   */\n      dup3\n        /* \"#utility.yul\":330:348   */\n      add\n        /* \"#utility.yul\":322:348   */\n      swap1\n      pop\n        /* \"#utility.yul\":358:429   */\n      tag_162\n        /* \"#utility.yul\":426:427   */\n      0x00\n        /* \"#utility.yul\":415:424   */\n      dup4\n        /* \"#utility.yul\":411:428   */\n      add\n        /* \"#utility.yul\":402:408   */\n      dup5\n        /* \"#utility.yul\":358:429   */\n      tag_100\n      jump\t// in\n    tag_162:\n        /* \"#utility.yul\":214:436   */\n      swap3\n      swap2\n      pop\n      pop\n      jump\t// out\n        /* \"#utility.yul\":442:517   */\n    tag_101:\n        /* \"#utility.yul\":475:481   */\n      0x00\n        /* \"#utility.yul\":508:510   */\n      0x40\n        /* \"#utility.yul\":502:511   */\n      mload\n        /* \"#utility.yul\":492:511   */\n      swap1\n      pop\n        /* \"#utility.yul\":442:517   */\n      swap1\n      jump\t// out\n        /* \"#utility.yul\":523:640   */\n    tag_102:\n        /* \"#utility.yul\":632:633   */\n      0x00\n        /* \"#utility.yul\":629:630   */\n      0x00\n        /* \"#utility.yul\":622:634   */\n      revert\n        /* \"#utility.yul\":646:763   */\n    tag_103:\n        /* \"#utility.yul\":755:756   */\n      0x00\n        /* \"#utility.yul\":752:753   */\n      0x00\n        /* \"#utility.yul\":745:757   */\n      revert\n        /* \"#utility.yul\":769:895   */\n    tag_104:\n        /* \"#utility.yul\":806:813   */\n      0x00\n        /* \"#utility.yul\":846:888   */\n      0xffffffffffffffffffffffffffffffffffffffff\n        /* \"#utility.yul\":839:844   */\n      dup3\n        /* \"#utility.yul\":835:889   */\n      and\n        /* \"#utility.yul\":824:889   */\n      swap1\n      pop\n        /* \"#utility.yul\":769:895   */\n      swap2\n      swap1\n      pop\n      jump\t// out\n        /* \"#utility.yul\":901:997   */\n    tag_105:\n        /* \"#utility.yul\":938:945   */\n      0x00\n        /* \"#utility.yul\":967:991   */\n      tag_168\n        /* \"#utility.yul\":985:990   */\n      dup3\n        /* \"#utility.yul\":967:991   */\n      tag_104\n      jump\t// in\n    tag_168:\n        /* \"#utility.yul\":956:991   */\n      swap1\n      pop\n        /* \"#utility.yul\":901:997   */\n      swap2\n      swap1\n      pop\n      jump\t// out\n        /* \"#utility.yul\":1003:1125   */\n    tag_106:\n        /* \"#utility.yul\":1076:1100   */\n      tag_170\n        /* \"#utility.yul\":1094:1099   */\n      dup2\n        /* \"#utility.yul\":1076:1100   */\n      tag_105\n      jump\t// in\n    tag_170:\n        /* \"#utility.yul\":1069:1074   */\n      dup2\n        /* \"#utility.yul\":1066:1101   */\n      eq\n        /* \"#utility.yul\":1056:1119   */\n      tag_171\n      jumpi\n        /* \"#utility.yul\":1115:1116   */\n      0x00\n        /* \"#utility.yul\":1112:1113   */\n      0x00\n        /* \"#utility.yul\":1105:1117   */\n      revert\n        /* \"#utility.yul\":1056:1119   */\n    tag_171:\n        /* \"#utility.yul\":1003:1125   */\n      pop\n      jump\t// out\n        /* \"#utility.yul\":1131:1270   */\n    tag_107:\n        /* \"#utility.yul\":1177:1182   */\n      0x00\n        /* \"#utility.yul\":1215:1221   */\n      dup2\n        /* \"#utility.yul\":1202:1222   */\n      calldataload\n        /* \"#utility.yul\":1193:1222   */\n      swap1\n      pop\n        /* \"#utility.yul\":1231:1264   */\n      tag_173\n        /* \"#utility.yul\":1258:1263   */\n      dup2\n        /* \"#utility.yul\":1231:1264   */\n      tag_106\n      jump\t// in\n    tag_173:\n        /* \"#utility.yul\":1131:1270   */\n      swap3\n      swap2\n      pop\n      pop\n      jump\t// out\n        /* \"#utility.yul\":1276:1605   */\n    tag_15:\n        /* \"#utility.yul\":1335:1341   */\n      0x00\n        /* \"#utility.yul\":1384:1386   */\n      0x20\n        /* \"#utility.yul\":1372:1381   */\n      dup3\n        /* \"#utility.yul\":1363:1370   */\n      dup5\n        /* \"#utility.yul\":1359:1382   */\n      sub\n        /* \"#utility.yul\":1355:1387   */\n      slt\n        /* \"#utility.yul\":1352:1471   */\n      iszero\n      tag_175\n      jumpi\n        /* \"#utility.yul\":1390:1469   */\n      tag_176\n      tag_102\n      jump\t// in\n    tag_176:\n        /* \"#utility.yul\":1352:1471   */\n    tag_175:\n        /* \"#utility.yul\":1510:1511   */\n      0x00\n        /* \"#utility.yul\":1535:1588   */\n      tag_177\n        /* \"#utility.yul\":1580:1587   */\n      dup5\n        /* \"#utility.yul\":1571:1577   */\n      dup3\n        /* \"#utility.yul\":1560:1569   */\n      dup6\n        /* \"#utility.yul\":1556:1578   */\n      add\n        /* \"#utility.yul\":1535:1588   */\n      tag_107\n      jump\t// in\n    tag_177:\n        /* \"#utility.yul\":1525:1588   */\n      swap2\n      pop\n        /* \"#utility.yul\":1481:1598   */\n      pop\n        /* \"#utility.yul\":1276:1605   */\n      swap3\n      swap2\n      pop\n      pop\n      jump\t// out\n        /* \"#utility.yul\":1611:1715   */\n    tag_108:\n        /* \"#utility.yul\":1656:1663   */\n      0x00\n        /* \"#utility.yul\":1685:1709   */\n      tag_179\n        /* \"#utility.yul\":1703:1708   */\n      dup3\n        /* \"#utility.yul\":1685:1709   */\n      tag_104\n      jump\t// in\n    tag_179:\n        /* \"#utility.yul\":1674:1709   */\n      swap1\n      pop\n        /* \"#utility.yul\":1611:1715   */\n      swap2\n      swap1\n      pop\n      jump\t// out\n        /* \"#utility.yul\":1721:1859   */\n    tag_109:\n        /* \"#utility.yul\":1802:1834   */\n      tag_181\n        /* \"#utility.yul\":1828:1833   */\n      dup2\n        /* \"#utility.yul\":1802:1834   */\n      tag_108\n      jump\t// in\n    tag_181:\n        /* \"#utility.yul\":1795:1800   */\n      dup2\n        /* \"#utility.yul\":1792:1835   */\n      eq\n        /* \"#utility.yul\":1782:1853   */\n      tag_182\n      jumpi\n        /* \"#utility.yul\":1849:1850   */\n      0x00\n        /* \"#utility.yul\":1846:1847   */\n      0x00\n        /* \"#utility.yul\":1839:1851   */\n      revert\n        /* \"#utility.yul\":1782:1853   */\n    tag_182:\n        /* \"#utility.yul\":1721:1859   */\n      pop\n      jump\t// out\n        /* \"#utility.yul\":1865:2020   */\n    tag_110:\n        /* \"#utility.yul\":1919:1924   */\n      0x00\n        /* \"#utility.yul\":1957:1963   */\n      dup2\n        /* \"#utility.yul\":1944:1964   */\n      calldataload\n        /* \"#utility.yul\":1935:1964   */\n      swap1\n      pop\n        /* \"#utility.yul\":1973:2014   */\n      tag_184\n        /* \"#utility.yul\":2008:2013   */\n      dup2\n        /* \"#utility.yul\":1973:2014   */\n      tag_109\n      jump\t// in\n    tag_184:\n        /* \"#utility.yul\":1865:2020   */\n      swap3\n      swap2\n      pop\n      pop\n      jump\t// out\n        /* \"#utility.yul\":2026:2143   */\n    tag_111:\n        /* \"#utility.yul\":2135:2136   */\n      0x00\n        /* \"#utility.yul\":2132:2133   */\n      0x00\n        /* \"#utility.yul\":2125:2137   */\n      revert\n        /* \"#utility.yul\":2149:2266   */\n    tag_112:\n        /* \"#utility.yul\":2258:2259   */\n      0x00\n        /* \"#utility.yul\":2255:2256   */\n      0x00\n        /* \"#utility.yul\":2248:2260   */\n      revert\n        /* \"#utility.yul\":2272:2374   */\n    tag_113:\n        /* \"#utility.yul\":2313:2319   */\n      0x00\n        /* \"#utility.yul\":2364:2366   */\n      0x1f\n        /* \"#utility.yul\":2360:2367   */\n      not\n        /* \"#utility.yul\":2355:2357   */\n      0x1f\n        /* \"#utility.yul\":2348:2353   */\n      dup4\n        /* \"#utility.yul\":2344:2358   */\n      add\n        /* \"#utility.yul\":2340:2368   */\n      and\n        /* \"#utility.yul\":2330:2368   */\n      swap1\n      pop\n        /* \"#utility.yul\":2272:2374   */\n      swap2\n      swap1\n      pop\n      jump\t// out\n        /* \"#utility.yul\":2380:2560   */\n    tag_114:\n        /* \"#utility.yul\":2428:2505   */\n      0x4e487b7100000000000000000000000000000000000000000000000000000000\n        /* \"#utility.yul\":2425:2426   */\n      0x00\n        /* \"#utility.yul\":2418:2506   */\n      mstore\n        /* \"#utility.yul\":2525:2529   */\n      0x41\n        /* \"#utility.yul\":2522:2523   */\n      0x04\n        /* \"#utility.yul\":2515:2530   */\n      mstore\n        /* \"#utility.yul\":2549:2553   */\n      0x24\n        /* \"#utility.yul\":2546:2547   */\n      0x00\n        /* \"#utility.yul\":2539:2554   */\n      revert\n        /* \"#utility.yul\":2566:2847   */\n    tag_115:\n        /* \"#utility.yul\":2649:2676   */\n      tag_190\n        /* \"#utility.yul\":2671:2675   */\n      dup3\n        /* \"#utility.yul\":2649:2676   */\n      tag_113\n      jump\t// in\n    tag_190:\n        /* \"#utility.yul\":2641:2647   */\n      dup2\n        /* \"#utility.yul\":2637:2677   */\n      add\n        /* \"#utility.yul\":2779:2785   */\n      dup2\n        /* \"#utility.yul\":2767:2777   */\n      dup2\n        /* \"#utility.yul\":2764:2786   */\n      lt\n        /* \"#utility.yul\":2743:2761   */\n      0xffffffffffffffff\n        /* \"#utility.yul\":2731:2741   */\n      dup3\n        /* \"#utility.yul\":2728:2762   */\n      gt\n        /* \"#utility.yul\":2725:2787   */\n      or\n        /* \"#utility.yul\":2722:2810   */\n      iszero\n      tag_191\n      jumpi\n        /* \"#utility.yul\":2790:2808   */\n      tag_192\n      tag_114\n      jump\t// in\n    tag_192:\n        /* \"#utility.yul\":2722:2810   */\n    tag_191:\n        /* \"#utility.yul\":2830:2840   */\n      dup1\n        /* \"#utility.yul\":2826:2828   */\n      0x40\n        /* \"#utility.yul\":2819:2841   */\n      mstore\n        /* \"#utility.yul\":2609:2847   */\n      pop\n        /* \"#utility.yul\":2566:2847   */\n      pop\n      pop\n      jump\t// out\n        /* \"#utility.yul\":2853:2982   */\n    tag_116:\n        /* \"#utility.yul\":2887:2893   */\n      0x00\n        /* \"#utility.yul\":2914:2934   */\n      tag_194\n      tag_101\n      jump\t// in\n    tag_194:\n        /* \"#utility.yul\":2904:2934   */\n      swap1\n      pop\n        /* \"#utility.yul\":2943:2976   */\n      tag_195\n        /* \"#utility.yul\":2971:2975   */\n      dup3\n        /* \"#utility.yul\":2963:2969   */\n      dup3\n        /* \"#utility.yul\":2943:2976   */\n      tag_115\n      jump\t// in\n    tag_195:\n        /* \"#utility.yul\":2853:2982   */\n      swap2\n      swap1\n      pop\n      jump\t// out\n        /* \"#utility.yul\":2988:3296   */\n    tag_117:\n        /* \"#utility.yul\":3050:3054   */\n      0x00\n        /* \"#utility.yul\":3140:3158   */\n      0xffffffffffffffff\n        /* \"#utility.yul\":3132:3138   */\n      dup3\n        /* \"#utility.yul\":3129:3159   */\n      gt\n        /* \"#utility.yul\":3126:3182   */\n      iszero\n      tag_197\n      jumpi\n        /* \"#utility.yul\":3162:3180   */\n      tag_198\n      tag_114\n      jump\t// in\n    tag_198:\n        /* \"#utility.yul\":3126:3182   */\n    tag_197:\n        /* \"#utility.yul\":3200:3229   */\n      tag_199\n        /* \"#utility.yul\":3222:3228   */\n      dup3\n        /* \"#utility.yul\":3200:3229   */\n      tag_113\n      jump\t// in\n    tag_199:\n        /* \"#utility.yul\":3192:3229   */\n      swap1\n      pop\n        /* \"#utility.yul\":3284:3288   */\n      0x20\n        /* \"#utility.yul\":3278:3282   */\n      dup2\n        /* \"#utility.yul\":3274:3289   */\n      add\n        /* \"#utility.yul\":3266:3289   */\n      swap1\n      pop\n        /* \"#utility.yul\":2988:3296   */\n      swap2\n      swap1\n      pop\n      jump\t// out\n        /* \"#utility.yul\":3302:3450   */\n    tag_118:\n        /* \"#utility.yul\":3400:3406   */\n      dup3\n        /* \"#utility.yul\":3395:3398   */\n      dup2\n        /* \"#utility.yul\":3390:3393   */\n      dup4\n        /* \"#utility.yul\":3377:3407   */\n      calldatacopy\n        /* \"#utility.yul\":3441:3442   */\n      0x00\n        /* \"#utility.yul\":3432:3438   */\n      dup4\n        /* \"#utility.yul\":3427:3430   */\n      dup4\n        /* \"#utility.yul\":3423:3439   */\n      add\n        /* \"#utility.yul\":3416:3443   */\n      mstore\n        /* \"#utility.yul\":3302:3450   */\n      pop\n      pop\n      pop\n      jump\t// out\n        /* \"#utility.yul\":3456:3881   */\n    tag_119:\n        /* \"#utility.yul\":3534:3539   */\n      0x00\n        /* \"#utility.yul\":3559:3625   */\n      tag_202\n        /* \"#utility.yul\":3575:3624   */\n      tag_203\n        /* \"#utility.yul\":3617:3623   */\n      dup5\n        /* \"#utility.yul\":3575:3624   */\n      tag_117\n      jump\t// in\n    tag_203:\n        /* \"#utility.yul\":3559:3625   */\n      tag_116\n      jump\t// in\n    tag_202:\n        /* \"#utility.yul\":3550:3625   */\n      swap1\n      pop\n        /* \"#utility.yul\":3648:3654   */\n      dup3\n        /* \"#utility.yul\":3641:3646   */\n      dup2\n        /* \"#utility.yul\":3634:3655   */\n      mstore\n        /* \"#utility.yul\":3686:3690   */\n      0x20\n        /* \"#utility.yul\":3679:3684   */\n      dup2\n        /* \"#utility.yul\":3675:3691   */\n      add\n        /* \"#utility.yul\":3724:3727   */\n      dup5\n        /* \"#utility.yul\":3715:3721   */\n      dup5\n        /* \"#utility.yul\":3710:3713   */\n      dup5\n        /* \"#utility.yul\":3706:3722   */\n      add\n        /* \"#utility.yul\":3703:3728   */\n      gt\n        /* \"#utility.yul\":3700:3812   */\n      iszero\n      tag_204\n      jumpi\n        /* \"#utility.yul\":3731:3810   */\n      tag_205\n      tag_112\n      jump\t// in\n    tag_205:\n        /* \"#utility.yul\":3700:3812   */\n    tag_204:\n        /* \"#utility.yul\":3821:3875   */\n      tag_206\n        /* \"#utility.yul\":3868:3874   */\n      dup5\n        /* \"#utility.yul\":3863:3866   */\n      dup3\n        /* \"#utility.yul\":3858:3861   */\n      dup6\n        /* \"#utility.yul\":3821:3875   */\n      tag_118\n      jump\t// in\n    tag_206:\n        /* \"#utility.yul\":3540:3881   */\n      pop\n        /* \"#utility.yul\":3456:3881   */\n      swap4\n      swap3\n      pop\n      pop\n      pop\n      jump\t// out\n        /* \"#utility.yul\":3901:4241   */\n    tag_120:\n        /* \"#utility.yul\":3957:3962   */\n      0x00\n        /* \"#utility.yul\":4006:4009   */\n      dup3\n        /* \"#utility.yul\":3999:4003   */\n      0x1f\n        /* \"#utility.yul\":3991:3997   */\n      dup4\n        /* \"#utility.yul\":3987:4004   */\n      add\n        /* \"#utility.yul\":3983:4010   */\n      slt\n        /* \"#utility.yul\":3973:4095   */\n      tag_208\n      jumpi\n        /* \"#utility.yul\":4014:4093   */\n      tag_209\n      tag_111\n      jump\t// in\n    tag_209:\n        /* \"#utility.yul\":3973:4095   */\n    tag_208:\n        /* \"#utility.yul\":4131:4137   */\n      dup2\n        /* \"#utility.yul\":4118:4138   */\n      calldataload\n        /* \"#utility.yul\":4156:4235   */\n      tag_210\n        /* \"#utility.yul\":4231:4234   */\n      dup5\n        /* \"#utility.yul\":4223:4229   */\n      dup3\n        /* \"#utility.yul\":4216:4220   */\n      0x20\n        /* \"#utility.yul\":4208:4214   */\n      dup7\n        /* \"#utility.yul\":4204:4221   */\n      add\n        /* \"#utility.yul\":4156:4235   */\n      tag_119\n      jump\t// in\n    tag_210:\n        /* \"#utility.yul\":4147:4235   */\n      swap2\n      pop\n        /* \"#utility.yul\":3963:4241   */\n      pop\n        /* \"#utility.yul\":3901:4241   */\n      swap3\n      swap2\n      pop\n      pop\n      jump\t// out\n        /* \"#utility.yul\":4247:4369   */\n    tag_121:\n        /* \"#utility.yul\":4320:4344   */\n      tag_212\n        /* \"#utility.yul\":4338:4343   */\n      dup2\n        /* \"#utility.yul\":4320:4344   */\n      tag_99\n      jump\t// in\n    tag_212:\n        /* \"#utility.yul\":4313:4318   */\n      dup2\n        /* \"#utility.yul\":4310:4345   */\n      eq\n        /* \"#utility.yul\":4300:4363   */\n      tag_213\n      jumpi\n        /* \"#utility.yul\":4359:4360   */\n      0x00\n        /* \"#utility.yul\":4356:4357   */\n      0x00\n        /* \"#utility.yul\":4349:4361   */\n      revert\n        /* \"#utility.yul\":4300:4363   */\n    tag_213:\n        /* \"#utility.yul\":4247:4369   */\n      pop\n      jump\t// out\n        /* \"#utility.yul\":4375:4514   */\n    tag_122:\n        /* \"#utility.yul\":4421:4426   */\n      0x00\n        /* \"#utility.yul\":4459:4465   */\n      dup2\n        /* \"#utility.yul\":4446:4466   */\n      calldataload\n        /* \"#utility.yul\":4437:4466   */\n      swap1\n      pop\n        /* \"#utility.yul\":4475:4508   */\n      tag_215\n        /* \"#utility.yul\":4502:4507   */\n      dup2\n        /* \"#utility.yul\":4475:4508   */\n      tag_121\n      jump\t// in\n    tag_215:\n        /* \"#utility.yul\":4375:4514   */\n      swap3\n      swap2\n      pop\n      pop\n      jump\t// out\n        /* \"#utility.yul\":4520:5335   */\n    tag_22:\n        /* \"#utility.yul\":4615:4621   */\n      0x00\n        /* \"#utility.yul\":4623:4629   */\n      0x00\n        /* \"#utility.yul\":4631:4637   */\n      0x00\n        /* \"#utility.yul\":4680:4682   */\n      0x60\n        /* \"#utility.yul\":4668:4677   */\n      dup5\n        /* \"#utility.yul\":4659:4666   */\n      dup7\n        /* \"#utility.yul\":4655:4678   */\n      sub\n        /* \"#utility.yul\":4651:4683   */\n      slt\n        /* \"#utility.yul\":4648:4767   */\n      iszero\n      tag_217\n      jumpi\n        /* \"#utility.yul\":4686:4765   */\n      tag_218\n      tag_102\n      jump\t// in\n    tag_218:\n        /* \"#utility.yul\":4648:4767   */\n    tag_217:\n        /* \"#utility.yul\":4806:4807   */\n      0x00\n        /* \"#utility.yul\":4831:4892   */\n      tag_219\n        /* \"#utility.yul\":4884:4891   */\n      dup7\n        /* \"#utility.yul\":4875:4881   */\n      dup3\n        /* \"#utility.yul\":4864:4873   */\n      dup8\n        /* \"#utility.yul\":4860:4882   */\n      add\n        /* \"#utility.yul\":4831:4892   */\n      tag_110\n      jump\t// in\n    tag_219:\n        /* \"#utility.yul\":4821:4892   */\n      swap4\n      pop\n        /* \"#utility.yul\":4777:4902   */\n      pop\n        /* \"#utility.yul\":4969:4971   */\n      0x20\n        /* \"#utility.yul\":4958:4967   */\n      dup5\n        /* \"#utility.yul\":4954:4972   */\n      add\n        /* \"#utility.yul\":4941:4973   */\n      calldataload\n        /* \"#utility.yul\":5000:5018   */\n      0xffffffffffffffff\n        /* \"#utility.yul\":4992:4998   */\n      dup2\n        /* \"#utility.yul\":4989:5019   */\n      gt\n        /* \"#utility.yul\":4986:5103   */\n      iszero\n      tag_220\n      jumpi\n        /* \"#utility.yul\":5022:5101   */\n      tag_221\n      tag_103\n      jump\t// in\n    tag_221:\n        /* \"#utility.yul\":4986:5103   */\n    tag_220:\n        /* \"#utility.yul\":5127:5190   */\n      tag_222\n        /* \"#utility.yul\":5182:5189   */\n      dup7\n        /* \"#utility.yul\":5173:5179   */\n      dup3\n        /* \"#utility.yul\":5162:5171   */\n      dup8\n        /* \"#utility.yul\":5158:5180   */\n      add\n        /* \"#utility.yul\":5127:5190   */\n      tag_120\n      jump\t// in\n    tag_222:\n        /* \"#utility.yul\":5117:5190   */\n      swap3\n      pop\n        /* \"#utility.yul\":4912:5200   */\n      pop\n        /* \"#utility.yul\":5239:5241   */\n      0x40\n        /* \"#utility.yul\":5265:5318   */\n      tag_223\n        /* \"#utility.yul\":5310:5317   */\n      dup7\n        /* \"#utility.yul\":5301:5307   */\n      dup3\n        /* \"#utility.yul\":5290:5299   */\n      dup8\n        /* \"#utility.yul\":5286:5308   */\n      add\n        /* \"#utility.yul\":5265:5318   */\n      tag_122\n      jump\t// in\n    tag_223:\n        /* \"#utility.yul\":5255:5318   */\n      swap2\n      pop\n        /* \"#utility.yul\":5210:5328   */\n      pop\n        /* \"#utility.yul\":4520:5335   */\n      swap3\n      pop\n      swap3\n      pop\n      swap3\n      jump\t// out\n        /* \"#utility.yul\":5341:5479   */\n    tag_123:\n        /* \"#utility.yul\":5432:5438   */\n      0x00\n        /* \"#utility.yul\":5466:5471   */\n      dup2\n        /* \"#utility.yul\":5460:5472   */\n      mload\n        /* \"#utility.yul\":5450:5472   */\n      swap1\n      pop\n        /* \"#utility.yul\":5341:5479   */\n      swap2\n      swap1\n      pop\n      jump\t// out\n        /* \"#utility.yul\":5485:5693   */\n    tag_124:\n        /* \"#utility.yul\":5608:5619   */\n      0x00\n        /* \"#utility.yul\":5642:5648   */\n      dup3\n        /* \"#utility.yul\":5637:5640   */\n      dup3\n        /* \"#utility.yul\":5630:5649   */\n      mstore\n        /* \"#utility.yul\":5682:5686   */\n      0x20\n        /* \"#utility.yul\":5677:5680   */\n      dup3\n        /* \"#utility.yul\":5673:5687   */\n      add\n        /* \"#utility.yul\":5658:5687   */\n      swap1\n      pop\n        /* \"#utility.yul\":5485:5693   */\n      swap3\n      swap2\n      pop\n      pop\n      jump\t// out\n        /* \"#utility.yul\":5699:5855   */\n    tag_125:\n        /* \"#utility.yul\":5790:5794   */\n      0x00\n        /* \"#utility.yul\":5813:5816   */\n      dup2\n        /* \"#utility.yul\":5805:5816   */\n      swap1\n      pop\n        /* \"#utility.yul\":5843:5847   */\n      0x20\n        /* \"#utility.yul\":5838:5841   */\n      dup3\n        /* \"#utility.yul\":5834:5848   */\n      add\n        /* \"#utility.yul\":5826:5848   */\n      swap1\n      pop\n        /* \"#utility.yul\":5699:5855   */\n      swap2\n      swap1\n      pop\n      jump\t// out\n        /* \"#utility.yul\":5861:5993   */\n    tag_126:\n        /* \"#utility.yul\":5954:5986   */\n      tag_228\n        /* \"#utility.yul\":5980:5985   */\n      dup2\n        /* \"#utility.yul\":5954:5986   */\n      tag_108\n      jump\t// in\n    tag_228:\n        /* \"#utility.yul\":5949:5952   */\n      dup3\n        /* \"#utility.yul\":5942:5987   */\n      mstore\n        /* \"#utility.yul\":5861:5993   */\n      pop\n      pop\n      jump\t// out\n        /* \"#utility.yul\":5999:6098   */\n    tag_127:\n        /* \"#utility.yul\":6051:6057   */\n      0x00\n        /* \"#utility.yul\":6085:6090   */\n      dup2\n        /* \"#utility.yul\":6079:6091   */\n      mload\n        /* \"#utility.yul\":6069:6091   */\n      swap1\n      pop\n        /* \"#utility.yul\":5999:6098   */\n      swap2\n      swap1\n      pop\n      jump\t// out\n        /* \"#utility.yul\":6104:6263   */\n    tag_128:\n        /* \"#utility.yul\":6178:6189   */\n      0x00\n        /* \"#utility.yul\":6212:6218   */\n      dup3\n        /* \"#utility.yul\":6207:6210   */\n      dup3\n        /* \"#utility.yul\":6200:6219   */\n      mstore\n        /* \"#utility.yul\":6252:6256   */\n      0x20\n        /* \"#utility.yul\":6247:6250   */\n      dup3\n        /* \"#utility.yul\":6243:6257   */\n      add\n        /* \"#utility.yul\":6228:6257   */\n      swap1\n      pop\n        /* \"#utility.yul\":6104:6263   */\n      swap3\n      swap2\n      pop\n      pop\n      jump\t// out\n        /* \"#utility.yul\":6269:6408   */\n    tag_129:\n        /* \"#utility.yul\":6358:6364   */\n      dup3\n        /* \"#utility.yul\":6353:6356   */\n      dup2\n        /* \"#utility.yul\":6348:6351   */\n      dup4\n        /* \"#utility.yul\":6342:6365   */\n      mcopy\n        /* \"#utility.yul\":6399:6400   */\n      0x00\n        /* \"#utility.yul\":6390:6396   */\n      dup4\n        /* \"#utility.yul\":6385:6388   */\n      dup4\n        /* \"#utility.yul\":6381:6397   */\n      add\n        /* \"#utility.yul\":6374:6401   */\n      mstore\n        /* \"#utility.yul\":6269:6408   */\n      pop\n      pop\n      pop\n      jump\t// out\n        /* \"#utility.yul\":6414:6771   */\n    tag_130:\n        /* \"#utility.yul\":6492:6495   */\n      0x00\n        /* \"#utility.yul\":6520:6559   */\n      tag_233\n        /* \"#utility.yul\":6553:6558   */\n      dup3\n        /* \"#utility.yul\":6520:6559   */\n      tag_127\n      jump\t// in\n    tag_233:\n        /* \"#utility.yul\":6575:6636   */\n      tag_234\n        /* \"#utility.yul\":6629:6635   */\n      dup2\n        /* \"#utility.yul\":6624:6627   */\n      dup6\n        /* \"#utility.yul\":6575:6636   */\n      tag_128\n      jump\t// in\n    tag_234:\n        /* \"#utility.yul\":6568:6636   */\n      swap4\n      pop\n        /* \"#utility.yul\":6645:6710   */\n      tag_235\n        /* \"#utility.yul\":6703:6709   */\n      dup2\n        /* \"#utility.yul\":6698:6701   */\n      dup6\n        /* \"#utility.yul\":6691:6695   */\n      0x20\n        /* \"#utility.yul\":6684:6689   */\n      dup7\n        /* \"#utility.yul\":6680:6696   */\n      add\n        /* \"#utility.yul\":6645:6710   */\n      tag_129\n      jump\t// in\n    tag_235:\n        /* \"#utility.yul\":6735:6764   */\n      tag_236\n        /* \"#utility.yul\":6757:6763   */\n      dup2\n        /* \"#utility.yul\":6735:6764   */\n      tag_113\n      jump\t// in\n    tag_236:\n        /* \"#utility.yul\":6730:6733   */\n      dup5\n        /* \"#utility.yul\":6726:6765   */\n      add\n        /* \"#utility.yul\":6719:6765   */\n      swap2\n      pop\n        /* \"#utility.yul\":6496:6771   */\n      pop\n        /* \"#utility.yul\":6414:6771   */\n      swap3\n      swap2\n      pop\n      pop\n      jump\t// out\n        /* \"#utility.yul\":6777:6885   */\n    tag_131:\n        /* \"#utility.yul\":6854:6878   */\n      tag_238\n        /* \"#utility.yul\":6872:6877   */\n      dup2\n        /* \"#utility.yul\":6854:6878   */\n      tag_99\n      jump\t// in\n    tag_238:\n        /* \"#utility.yul\":6849:6852   */\n      dup3\n        /* \"#utility.yul\":6842:6879   */\n      mstore\n        /* \"#utility.yul\":6777:6885   */\n      pop\n      pop\n      jump\t// out\n        /* \"#utility.yul\":6943:7739   */\n    tag_132:\n        /* \"#utility.yul\":7050:7053   */\n      0x00\n        /* \"#utility.yul\":7086:7090   */\n      0x60\n        /* \"#utility.yul\":7081:7084   */\n      dup4\n        /* \"#utility.yul\":7077:7091   */\n      add\n        /* \"#utility.yul\":7182:7186   */\n      0x00\n        /* \"#utility.yul\":7175:7180   */\n      dup4\n        /* \"#utility.yul\":7171:7187   */\n      add\n        /* \"#utility.yul\":7165:7188   */\n      mload\n        /* \"#utility.yul\":7201:7280   */\n      tag_240\n        /* \"#utility.yul\":7274:7278   */\n      0x00\n        /* \"#utility.yul\":7269:7272   */\n      dup7\n        /* \"#utility.yul\":7265:7279   */\n      add\n        /* \"#utility.yul\":7251:7263   */\n      dup3\n        /* \"#utility.yul\":7201:7280   */\n      tag_126\n      jump\t// in\n    tag_240:\n        /* \"#utility.yul\":7101:7290   */\n      pop\n        /* \"#utility.yul\":7372:7376   */\n      0x20\n        /* \"#utility.yul\":7365:7370   */\n      dup4\n        /* \"#utility.yul\":7361:7377   */\n      add\n        /* \"#utility.yul\":7355:7378   */\n      mload\n        /* \"#utility.yul\":7425:7428   */\n      dup5\n        /* \"#utility.yul\":7419:7423   */\n      dup3\n        /* \"#utility.yul\":7415:7429   */\n      sub\n        /* \"#utility.yul\":7408:7412   */\n      0x20\n        /* \"#utility.yul\":7403:7406   */\n      dup7\n        /* \"#utility.yul\":7399:7413   */\n      add\n        /* \"#utility.yul\":7392:7430   */\n      mstore\n        /* \"#utility.yul\":7451:7524   */\n      tag_241\n        /* \"#utility.yul\":7519:7523   */\n      dup3\n        /* \"#utility.yul\":7505:7517   */\n      dup3\n        /* \"#utility.yul\":7451:7524   */\n      tag_130\n      jump\t// in\n    tag_241:\n        /* \"#utility.yul\":7443:7524   */\n      swap2\n      pop\n        /* \"#utility.yul\":7300:7535   */\n      pop\n        /* \"#utility.yul\":7620:7624   */\n      0x40\n        /* \"#utility.yul\":7613:7618   */\n      dup4\n        /* \"#utility.yul\":7609:7625   */\n      add\n        /* \"#utility.yul\":7603:7626   */\n      mload\n        /* \"#utility.yul\":7639:7702   */\n      tag_242\n        /* \"#utility.yul\":7696:7700   */\n      0x40\n        /* \"#utility.yul\":7691:7694   */\n      dup7\n        /* \"#utility.yul\":7687:7701   */\n      add\n        /* \"#utility.yul\":7673:7685   */\n      dup3\n        /* \"#utility.yul\":7639:7702   */\n      tag_131\n      jump\t// in\n    tag_242:\n        /* \"#utility.yul\":7545:7712   */\n      pop\n        /* \"#utility.yul\":7729:7733   */\n      dup1\n        /* \"#utility.yul\":7722:7733   */\n      swap2\n      pop\n        /* \"#utility.yul\":7055:7739   */\n      pop\n        /* \"#utility.yul\":6943:7739   */\n      swap3\n      swap2\n      pop\n      pop\n      jump\t// out\n        /* \"#utility.yul\":7745:7997   */\n    tag_133:\n        /* \"#utility.yul\":7862:7872   */\n      0x00\n        /* \"#utility.yul\":7897:7991   */\n      tag_244\n        /* \"#utility.yul\":7987:7990   */\n      dup4\n        /* \"#utility.yul\":7979:7985   */\n      dup4\n        /* \"#utility.yul\":7897:7991   */\n      tag_132\n      jump\t// in\n    tag_244:\n        /* \"#utility.yul\":7883:7991   */\n      swap1\n      pop\n        /* \"#utility.yul\":7745:7997   */\n      swap3\n      swap2\n      pop\n      pop\n      jump\t// out\n        /* \"#utility.yul\":8003:8140   */\n    tag_134:\n        /* \"#utility.yul\":8097:8101   */\n      0x00\n        /* \"#utility.yul\":8129:8133   */\n      0x20\n        /* \"#utility.yul\":8124:8127   */\n      dup3\n        /* \"#utility.yul\":8120:8134   */\n      add\n        /* \"#utility.yul\":8112:8134   */\n      swap1\n      pop\n        /* \"#utility.yul\":8003:8140   */\n      swap2\n      swap1\n      pop\n      jump\t// out\n        /* \"#utility.yul\":8202:9305   */\n    tag_135:\n        /* \"#utility.yul\":8369:8372   */\n      0x00\n        /* \"#utility.yul\":8398:8476   */\n      tag_247\n        /* \"#utility.yul\":8470:8475   */\n      dup3\n        /* \"#utility.yul\":8398:8476   */\n      tag_123\n      jump\t// in\n    tag_247:\n        /* \"#utility.yul\":8492:8602   */\n      tag_248\n        /* \"#utility.yul\":8595:8601   */\n      dup2\n        /* \"#utility.yul\":8590:8593   */\n      dup6\n        /* \"#utility.yul\":8492:8602   */\n      tag_124\n      jump\t// in\n    tag_248:\n        /* \"#utility.yul\":8485:8602   */\n      swap4\n      pop\n        /* \"#utility.yul\":8628:8631   */\n      dup4\n        /* \"#utility.yul\":8673:8677   */\n      0x20\n        /* \"#utility.yul\":8665:8671   */\n      dup3\n        /* \"#utility.yul\":8661:8678   */\n      mul\n        /* \"#utility.yul\":8656:8659   */\n      dup6\n        /* \"#utility.yul\":8652:8679   */\n      add\n        /* \"#utility.yul\":8703:8783   */\n      tag_249\n        /* \"#utility.yul\":8777:8782   */\n      dup6\n        /* \"#utility.yul\":8703:8783   */\n      tag_125\n      jump\t// in\n    tag_249:\n        /* \"#utility.yul\":8806:8813   */\n      dup1\n        /* \"#utility.yul\":8837:8838   */\n      0x00\n        /* \"#utility.yul\":8822:9260   */\n    tag_250:\n        /* \"#utility.yul\":8847:8853   */\n      dup6\n        /* \"#utility.yul\":8844:8845   */\n      dup2\n        /* \"#utility.yul\":8841:8854   */\n      lt\n        /* \"#utility.yul\":8822:9260   */\n      iszero\n      tag_252\n      jumpi\n        /* \"#utility.yul\":8918:8927   */\n      dup5\n        /* \"#utility.yul\":8912:8916   */\n      dup5\n        /* \"#utility.yul\":8908:8928   */\n      sub\n        /* \"#utility.yul\":8903:8906   */\n      dup10\n        /* \"#utility.yul\":8896:8929   */\n      mstore\n        /* \"#utility.yul\":8969:8975   */\n      dup2\n        /* \"#utility.yul\":8963:8976   */\n      mload\n        /* \"#utility.yul\":8997:9109   */\n      tag_253\n        /* \"#utility.yul\":9104:9108   */\n      dup6\n        /* \"#utility.yul\":9089:9102   */\n      dup3\n        /* \"#utility.yul\":8997:9109   */\n      tag_133\n      jump\t// in\n    tag_253:\n        /* \"#utility.yul\":8989:9109   */\n      swap5\n      pop\n        /* \"#utility.yul\":9132:9216   */\n      tag_254\n        /* \"#utility.yul\":9209:9215   */\n      dup4\n        /* \"#utility.yul\":9132:9216   */\n      tag_134\n      jump\t// in\n    tag_254:\n        /* \"#utility.yul\":9122:9216   */\n      swap3\n      pop\n        /* \"#utility.yul\":9245:9249   */\n      0x20\n        /* \"#utility.yul\":9240:9243   */\n      dup11\n        /* \"#utility.yul\":9236:9250   */\n      add\n        /* \"#utility.yul\":9229:9250   */\n      swap10\n      pop\n        /* \"#utility.yul\":8882:9260   */\n      pop\n        /* \"#utility.yul\":8869:8870   */\n      0x01\n        /* \"#utility.yul\":8866:8867   */\n      dup2\n        /* \"#utility.yul\":8862:8871   */\n      add\n        /* \"#utility.yul\":8857:8871   */\n      swap1\n      pop\n        /* \"#utility.yul\":8822:9260   */\n      jump(tag_250)\n    tag_252:\n        /* \"#utility.yul\":8826:8840   */\n      pop\n        /* \"#utility.yul\":9276:9280   */\n      dup3\n        /* \"#utility.yul\":9269:9280   */\n      swap8\n      pop\n        /* \"#utility.yul\":9296:9299   */\n      dup8\n        /* \"#utility.yul\":9289:9299   */\n      swap6\n      pop\n        /* \"#utility.yul\":8374:9305   */\n      pop\n      pop\n      pop\n      pop\n      pop\n        /* \"#utility.yul\":8202:9305   */\n      swap3\n      swap2\n      pop\n      pop\n      jump\t// out\n        /* \"#utility.yul\":9311:9780   */\n    tag_28:\n        /* \"#utility.yul\":9502:9506   */\n      0x00\n        /* \"#utility.yul\":9540:9542   */\n      0x20\n        /* \"#utility.yul\":9529:9538   */\n      dup3\n        /* \"#utility.yul\":9525:9543   */\n      add\n        /* \"#utility.yul\":9517:9543   */\n      swap1\n      pop\n        /* \"#utility.yul\":9589:9598   */\n      dup2\n        /* \"#utility.yul\":9583:9587   */\n      dup2\n        /* \"#utility.yul\":9579:9599   */\n      sub\n        /* \"#utility.yul\":9575:9576   */\n      0x00\n        /* \"#utility.yul\":9564:9573   */\n      dup4\n        /* \"#utility.yul\":9560:9577   */\n      add\n        /* \"#utility.yul\":9553:9600   */\n      mstore\n        /* \"#utility.yul\":9617:9773   */\n      tag_256\n        /* \"#utility.yul\":9768:9772   */\n      dup2\n        /* \"#utility.yul\":9759:9765   */\n      dup5\n        /* \"#utility.yul\":9617:9773   */\n      tag_135\n      jump\t// in\n    tag_256:\n        /* \"#utility.yul\":9609:9773   */\n      swap1\n      pop\n        /* \"#utility.yul\":9311:9780   */\n      swap3\n      swap2\n      pop\n      pop\n      jump\t// out\n        /* \"#utility.yul\":9786:9955   */\n    tag_136:\n        /* \"#utility.yul\":9870:9881   */\n      0x00\n        /* \"#utility.yul\":9904:9910   */\n      dup3\n        /* \"#utility.yul\":9899:9902   */\n      dup3\n        /* \"#utility.yul\":9892:9911   */\n      mstore\n        /* \"#utility.yul\":9944:9948   */\n      0x20\n        /* \"#utility.yul\":9939:9942   */\n      dup3\n        /* \"#utility.yul\":9935:9949   */\n      add\n        /* \"#utility.yul\":9920:9949   */\n      swap1\n      pop\n        /* \"#utility.yul\":9786:9955   */\n      swap3\n      swap2\n      pop\n      pop\n      jump\t// out\n        /* \"#utility.yul\":9961:10130   */\n    tag_137:\n        /* \"#utility.yul\":10101:10122   */\n      0x4f6e6c79206f776e65722063616e2063616c6c00000000000000000000000000\n        /* \"#utility.yul\":10097:10098   */\n      0x00\n        /* \"#utility.yul\":10089:10095   */\n      dup3\n        /* \"#utility.yul\":10085:10099   */\n      add\n        /* \"#utility.yul\":10078:10123   */\n      mstore\n        /* \"#utility.yul\":9961:10130   */\n      pop\n      jump\t// out\n        /* \"#utility.yul\":10136:10502   */\n    tag_138:\n        /* \"#utility.yul\":10278:10281   */\n      0x00\n        /* \"#utility.yul\":10299:10366   */\n      tag_260\n        /* \"#utility.yul\":10363:10365   */\n      0x13\n        /* \"#utility.yul\":10358:10361   */\n      dup4\n        /* \"#utility.yul\":10299:10366   */\n      tag_136\n      jump\t// in\n    tag_260:\n        /* \"#utility.yul\":10292:10366   */\n      swap2\n      pop\n        /* \"#utility.yul\":10375:10468   */\n      tag_261\n        /* \"#utility.yul\":10464:10467   */\n      dup3\n        /* \"#utility.yul\":10375:10468   */\n      tag_137\n      jump\t// in\n    tag_261:\n        /* \"#utility.yul\":10493:10495   */\n      0x20\n        /* \"#utility.yul\":10488:10491   */\n      dup3\n        /* \"#utility.yul\":10484:10496   */\n      add\n        /* \"#utility.yul\":10477:10496   */\n      swap1\n      pop\n        /* \"#utility.yul\":10136:10502   */\n      swap2\n      swap1\n      pop\n      jump\t// out\n        /* \"#utility.yul\":10508:10927   */\n    tag_33:\n        /* \"#utility.yul\":10674:10678   */\n      0x00\n        /* \"#utility.yul\":10712:10714   */\n      0x20\n        /* \"#utility.yul\":10701:10710   */\n      dup3\n        /* \"#utility.yul\":10697:10715   */\n      add\n        /* \"#utility.yul\":10689:10715   */\n      swap1\n      pop\n        /* \"#utility.yul\":10761:10770   */\n      dup2\n        /* \"#utility.yul\":10755:10759   */\n      dup2\n        /* \"#utility.yul\":10751:10771   */\n      sub\n        /* \"#utility.yul\":10747:10748   */\n      0x00\n        /* \"#utility.yul\":10736:10745   */\n      dup4\n        /* \"#utility.yul\":10732:10749   */\n      add\n        /* \"#utility.yul\":10725:10772   */\n      mstore\n        /* \"#utility.yul\":10789:10920   */\n      tag_263\n        /* \"#utility.yul\":10915:10919   */\n      dup2\n        /* \"#utility.yul\":10789:10920   */\n      tag_138\n      jump\t// in\n    tag_263:\n        /* \"#utility.yul\":10781:10920   */\n      swap1\n      pop\n        /* \"#utility.yul\":10508:10927   */\n      swap2\n      swap1\n      pop\n      jump\t// out\n        /* \"#utility.yul\":10933:11113   */\n    tag_41:\n        /* \"#utility.yul\":10981:11058   */\n      0x4e487b7100000000000000000000000000000000000000000000000000000000\n        /* \"#utility.yul\":10978:10979   */\n      0x00\n        /* \"#utility.yul\":10971:11059   */\n      mstore\n        /* \"#utility.yul\":11078:11082   */\n      0x32\n        /* \"#utility.yul\":11075:11076   */\n      0x04\n        /* \"#utility.yul\":11068:11083   */\n      mstore\n        /* \"#utility.yul\":11102:11106   */\n      0x24\n        /* \"#utility.yul\":11099:11100   */\n      0x00\n        /* \"#utility.yul\":11092:11107   */\n      revert\n        /* \"#utility.yul\":11119:11299   */\n    tag_139:\n        /* \"#utility.yul\":11167:11244   */\n      0x4e487b7100000000000000000000000000000000000000000000000000000000\n        /* \"#utility.yul\":11164:11165   */\n      0x00\n        /* \"#utility.yul\":11157:11245   */\n      mstore\n        /* \"#utility.yul\":11264:11268   */\n      0x11\n        /* \"#utility.yul\":11261:11262   */\n      0x04\n        /* \"#utility.yul\":11254:11269   */\n      mstore\n        /* \"#utility.yul\":11288:11292   */\n      0x24\n        /* \"#utility.yul\":11285:11286   */\n      0x00\n        /* \"#utility.yul\":11278:11293   */\n      revert\n        /* \"#utility.yul\":11305:11499   */\n    tag_48:\n        /* \"#utility.yul\":11345:11349   */\n      0x00\n        /* \"#utility.yul\":11365:11385   */\n      tag_267\n        /* \"#utility.yul\":11383:11384   */\n      dup3\n        /* \"#utility.yul\":11365:11385   */\n      tag_99\n      jump\t// in\n    tag_267:\n        /* \"#utility.yul\":11360:11385   */\n      swap2\n      pop\n        /* \"#utility.yul\":11399:11419   */\n      tag_268\n        /* \"#utility.yul\":11417:11418   */\n      dup4\n        /* \"#utility.yul\":11399:11419   */\n      tag_99\n      jump\t// in\n    tag_268:\n        /* \"#utility.yul\":11394:11419   */\n      swap3\n      pop\n        /* \"#utility.yul\":11443:11444   */\n      dup3\n        /* \"#utility.yul\":11440:11441   */\n      dup3\n        /* \"#utility.yul\":11436:11445   */\n      sub\n        /* \"#utility.yul\":11428:11445   */\n      swap1\n      pop\n        /* \"#utility.yul\":11467:11468   */\n      dup2\n        /* \"#utility.yul\":11461:11465   */\n      dup2\n        /* \"#utility.yul\":11458:11469   */\n      gt\n        /* \"#utility.yul\":11455:11492   */\n      iszero\n      tag_269\n      jumpi\n        /* \"#utility.yul\":11472:11490   */\n      tag_270\n      tag_139\n      jump\t// in\n    tag_270:\n        /* \"#utility.yul\":11455:11492   */\n    tag_269:\n        /* \"#utility.yul\":11305:11499   */\n      swap3\n      swap2\n      pop\n      pop\n      jump\t// out\n        /* \"#utility.yul\":11505:11696   */\n    tag_50:\n        /* \"#utility.yul\":11545:11548   */\n      0x00\n        /* \"#utility.yul\":11564:11584   */\n      tag_272\n        /* \"#utility.yul\":11582:11583   */\n      dup3\n        /* \"#utility.yul\":11564:11584   */\n      tag_99\n      jump\t// in\n    tag_272:\n        /* \"#utility.yul\":11559:11584   */\n      swap2\n      pop\n        /* \"#utility.yul\":11598:11618   */\n      tag_273\n        /* \"#utility.yul\":11616:11617   */\n      dup4\n        /* \"#utility.yul\":11598:11618   */\n      tag_99\n      jump\t// in\n    tag_273:\n        /* \"#utility.yul\":11593:11618   */\n      swap3\n      pop\n        /* \"#utility.yul\":11641:11642   */\n      dup3\n        /* \"#utility.yul\":11638:11639   */\n      dup3\n        /* \"#utility.yul\":11634:11643   */\n      add\n        /* \"#utility.yul\":11627:11643   */\n      swap1\n      pop\n        /* \"#utility.yul\":11662:11665   */\n      dup1\n        /* \"#utility.yul\":11659:11660   */\n      dup3\n        /* \"#utility.yul\":11656:11666   */\n      gt\n        /* \"#utility.yul\":11653:11689   */\n      iszero\n      tag_274\n      jumpi\n        /* \"#utility.yul\":11669:11687   */\n      tag_275\n      tag_139\n      jump\t// in\n    tag_275:\n        /* \"#utility.yul\":11653:11689   */\n    tag_274:\n        /* \"#utility.yul\":11505:11696   */\n      swap3\n      swap2\n      pop\n      pop\n      jump\t// out\n        /* \"#utility.yul\":11702:11882   */\n    tag_140:\n        /* \"#utility.yul\":11750:11827   */\n      0x4e487b7100000000000000000000000000000000000000000000000000000000\n        /* \"#utility.yul\":11747:11748   */\n      0x00\n        /* \"#utility.yul\":11740:11828   */\n      mstore\n        /* \"#utility.yul\":11847:11851   */\n      0x22\n        /* \"#utility.yul\":11844:11845   */\n      0x04\n        /* \"#utility.yul\":11837:11852   */\n      mstore\n        /* \"#utility.yul\":11871:11875   */\n      0x24\n        /* \"#utility.yul\":11868:11869   */\n      0x00\n        /* \"#utility.yul\":11861:11876   */\n      revert\n        /* \"#utility.yul\":11888:12208   */\n    tag_87:\n        /* \"#utility.yul\":11932:11938   */\n      0x00\n        /* \"#utility.yul\":11969:11970   */\n      0x02\n        /* \"#utility.yul\":11963:11967   */\n      dup3\n        /* \"#utility.yul\":11959:11971   */\n      div\n        /* \"#utility.yul\":11949:11971   */\n      swap1\n      pop\n        /* \"#utility.yul\":12016:12017   */\n      0x01\n        /* \"#utility.yul\":12010:12014   */\n      dup3\n        /* \"#utility.yul\":12006:12018   */\n      and\n        /* \"#utility.yul\":12037:12055   */\n      dup1\n        /* \"#utility.yul\":12027:12108   */\n      tag_278\n      jumpi\n        /* \"#utility.yul\":12093:12097   */\n      0x7f\n        /* \"#utility.yul\":12085:12091   */\n      dup3\n        /* \"#utility.yul\":12081:12098   */\n      and\n        /* \"#utility.yul\":12071:12098   */\n      swap2\n      pop\n        /* \"#utility.yul\":12027:12108   */\n    tag_278:\n        /* \"#utility.yul\":12155:12157   */\n      0x20\n        /* \"#utility.yul\":12147:12153   */\n      dup3\n        /* \"#utility.yul\":12144:12158   */\n      lt\n        /* \"#utility.yul\":12124:12142   */\n      dup2\n        /* \"#utility.yul\":12121:12159   */\n      sub\n        /* \"#utility.yul\":12118:12202   */\n      tag_279\n      jumpi\n        /* \"#utility.yul\":12174:12192   */\n      tag_280\n      tag_140\n      jump\t// in\n    tag_280:\n        /* \"#utility.yul\":12118:12202   */\n    tag_279:\n        /* \"#utility.yul\":11939:12208   */\n      pop\n        /* \"#utility.yul\":11888:12208   */\n      swap2\n      swap1\n      pop\n      jump\t// out\n        /* \"#utility.yul\":12214:12363   */\n    tag_141:\n        /* \"#utility.yul\":12263:12269   */\n      0x00\n        /* \"#utility.yul\":12297:12302   */\n      dup2\n        /* \"#utility.yul\":12291:12303   */\n      sload\n        /* \"#utility.yul\":12281:12303   */\n      swap1\n      pop\n        /* \"#utility.yul\":12323:12356   */\n      tag_282\n        /* \"#utility.yul\":12349:12355   */\n      dup2\n        /* \"#utility.yul\":12323:12356   */\n      tag_87\n      jump\t// in\n    tag_282:\n        /* \"#utility.yul\":12313:12356   */\n      swap1\n      pop\n        /* \"#utility.yul\":12214:12363   */\n      swap2\n      swap1\n      pop\n      jump\t// out\n        /* \"#utility.yul\":12369:12510   */\n    tag_142:\n        /* \"#utility.yul\":12418:12422   */\n      0x00\n        /* \"#utility.yul\":12441:12444   */\n      dup2\n        /* \"#utility.yul\":12433:12444   */\n      swap1\n      pop\n        /* \"#utility.yul\":12464:12467   */\n      dup2\n        /* \"#utility.yul\":12461:12462   */\n      0x00\n        /* \"#utility.yul\":12454:12468   */\n      mstore\n        /* \"#utility.yul\":12498:12502   */\n      0x20\n        /* \"#utility.yul\":12495:12496   */\n      0x00\n        /* \"#utility.yul\":12485:12503   */\n      keccak256\n        /* \"#utility.yul\":12477:12503   */\n      swap1\n      pop\n        /* \"#utility.yul\":12369:12510   */\n      swap2\n      swap1\n      pop\n      jump\t// out\n        /* \"#utility.yul\":12516:12609   */\n    tag_143:\n        /* \"#utility.yul\":12553:12559   */\n      0x00\n        /* \"#utility.yul\":12600:12602   */\n      0x20\n        /* \"#utility.yul\":12595:12597   */\n      0x1f\n        /* \"#utility.yul\":12588:12593   */\n      dup4\n        /* \"#utility.yul\":12584:12598   */\n      add\n        /* \"#utility.yul\":12580:12603   */\n      div\n        /* \"#utility.yul\":12570:12603   */\n      swap1\n      pop\n        /* \"#utility.yul\":12516:12609   */\n      swap2\n      swap1\n      pop\n      jump\t// out\n        /* \"#utility.yul\":12615:12722   */\n    tag_144:\n        /* \"#utility.yul\":12659:12667   */\n      0x00\n        /* \"#utility.yul\":12709:12714   */\n      dup3\n        /* \"#utility.yul\":12703:12707   */\n      dup3\n        /* \"#utility.yul\":12699:12715   */\n      shl\n        /* \"#utility.yul\":12678:12715   */\n      swap1\n      pop\n        /* \"#utility.yul\":12615:12722   */\n      swap3\n      swap2\n      pop\n      pop\n      jump\t// out\n        /* \"#utility.yul\":12728:13121   */\n    tag_145:\n        /* \"#utility.yul\":12797:12803   */\n      0x00\n        /* \"#utility.yul\":12847:12848   */\n      0x08\n        /* \"#utility.yul\":12835:12845   */\n      dup4\n        /* \"#utility.yul\":12831:12849   */\n      mul\n        /* \"#utility.yul\":12870:12967   */\n      tag_287\n        /* \"#utility.yul\":12900:12966   */\n      0xffffffffffffffffffffffffffffffffffffffffffffffffffffffffffffffff\n        /* \"#utility.yul\":12889:12898   */\n      dup3\n        /* \"#utility.yul\":12870:12967   */\n      tag_144\n      jump\t// in\n    tag_287:\n        /* \"#utility.yul\":12988:13027   */\n      tag_288\n        /* \"#utility.yul\":13018:13026   */\n      dup7\n        /* \"#utility.yul\":13007:13016   */\n      dup4\n        /* \"#utility.yul\":12988:13027   */\n      tag_144\n      jump\t// in\n    tag_288:\n        /* \"#utility.yul\":12976:13027   */\n      swap6\n      pop\n        /* \"#utility.yul\":13060:13064   */\n      dup1\n        /* \"#utility.yul\":13056:13065   */\n      not\n        /* \"#utility.yul\":13049:13054   */\n      dup5\n        /* \"#utility.yul\":13045:13066   */\n      and\n        /* \"#utility.yul\":13036:13066   */\n      swap4\n      pop\n        /* \"#utility.yul\":13109:13113   */\n      dup1\n        /* \"#utility.yul\":13099:13107   */\n      dup7\n        /* \"#utility.yul\":13095:13114   */\n      and\n        /* \"#utility.yul\":13088:13093   */\n      dup5\n        /* \"#utility.yul\":13085:13115   */\n      or\n        /* \"#utility.yul\":13075:13115   */\n      swap3\n      pop\n        /* \"#utility.yul\":12804:13121   */\n      pop\n      pop\n        /* \"#utility.yul\":12728:13121   */\n      swap4\n      swap3\n      pop\n      pop\n      pop\n      jump\t// out\n        /* \"#utility.yul\":13127:13187   */\n    tag_146:\n        /* \"#utility.yul\":13155:13158   */\n      0x00\n        /* \"#utility.yul\":13176:13181   */\n      dup2\n        /* \"#utility.yul\":13169:13181   */\n      swap1\n      pop\n        /* \"#utility.yul\":13127:13187   */\n      swap2\n      swap1\n      pop\n      jump\t// out\n        /* \"#utility.yul\":13193:13335   */\n    tag_147:\n        /* \"#utility.yul\":13243:13252   */\n      0x00\n        /* \"#utility.yul\":13276:13329   */\n      tag_291\n        /* \"#utility.yul\":13294:13328   */\n      tag_292\n        /* \"#utility.yul\":13303:13327   */\n      tag_293\n        /* \"#utility.yul\":13321:13326   */\n      dup5\n        /* \"#utility.yul\":13303:13327   */\n      tag_99\n      jump\t// in\n    tag_293:\n        /* \"#utility.yul\":13294:13328   */\n      tag_146\n      jump\t// in\n    tag_292:\n        /* \"#utility.yul\":13276:13329   */\n      tag_99\n      jump\t// in\n    tag_291:\n        /* \"#utility.yul\":13263:13329   */\n      swap1\n      pop\n        /* \"#utility.yul\":13193:13335   */\n      swap2\n      swap1\n      pop\n      jump\t// out\n        /* \"#utility.yul\":13341:13416   */\n    tag_148:\n        /* \"#utility.yul\":13384:13387   */\n      0x00\n        /* \"#utility.yul\":13405:13410   */\n      dup2\n        /* \"#utility.yul\":13398:13410   */\n      swap1\n      pop\n        /* \"#utility.yul\":13341:13416   */\n      swap2\n      swap1\n      pop\n      jump\t// out\n        /* \"#utility.yul\":13422:13691   */\n    tag_149:\n        /* \"#utility.yul\":13532:13571   */\n      tag_296\n        /* \"#utility.yul\":13563:13570   */\n      dup4\n        /* \"#utility.yul\":13532:13571   */\n      tag_147\n      jump\t// in\n    tag_296:\n        /* \"#utility.yul\":13593:13684   */\n      tag_297\n        /* \"#utility.yul\":13642:13683   */\n      tag_298\n        /* \"#utility.yul\":13666:13682   */\n      dup3\n        /* \"#utility.yul\":13642:13683   */\n      tag_148\n      jump\t// in\n    tag_298:\n        /* \"#utility.yul\":13634:13640   */\n      dup5\n        /* \"#utility.yul\":13627:13631   */\n      dup5\n        /* \"#utility.yul\":13621:13632   */\n      sload\n        /* \"#utility.yul\":13593:13684   */\n      tag_145\n      jump\t// in\n    tag_297:\n        /* \"#utility.yul\":13587:13591   */\n      dup3\n        /* \"#utility.yul\":13580:13685   */\n      sstore\n        /* \"#utility.yul\":13498:13691   */\n      pop\n        /* \"#utility.yul\":13422:13691   */\n      pop\n      pop\n      pop\n      jump\t// out\n        /* \"#utility.yul\":13697:13770   */\n    tag_150:\n        /* \"#utility.yul\":13742:13745   */\n      0x00\n        /* \"#utility.yul\":13763:13764   */\n      0x00\n        /* \"#utility.yul\":13756:13764   */\n      swap1\n      pop\n        /* \"#utility.yul\":13697:13770   */\n      swap1\n      jump\t// out\n        /* \"#utility.yul\":13776:13965   */\n    tag_151:\n        /* \"#utility.yul\":13853:13885   */\n      tag_301\n      tag_150\n      jump\t// in\n    tag_301:\n        /* \"#utility.yul\":13894:13959   */\n      tag_302\n        /* \"#utility.yul\":13952:13958   */\n      dup2\n        /* \"#utility.yul\":13944:13950   */\n      dup5\n        /* \"#utility.yul\":13938:13942   */\n      dup5\n        /* \"#utility.yul\":13894:13959   */\n      tag_149\n      jump\t// in\n    tag_302:\n        /* \"#utility.yul\":13829:13965   */\n      pop\n        /* \"#utility.yul\":13776:13965   */\n      pop\n      pop\n      jump\t// out\n        /* \"#utility.yul\":13971:14157   */\n    tag_152:\n        /* \"#utility.yul\":14031:14151   */\n    tag_304:\n        /* \"#utility.yul\":14048:14051   */\n      dup2\n        /* \"#utility.yul\":14041:14046   */\n      dup2\n        /* \"#utility.yul\":14038:14052   */\n      lt\n        /* \"#utility.yul\":14031:14151   */\n      iszero\n      tag_306\n      jumpi\n        /* \"#utility.yul\":14102:14141   */\n      tag_307\n        /* \"#utility.yul\":14139:14140   */\n      0x00\n        /* \"#utility.yul\":14132:14137   */\n      dup3\n        /* \"#utility.yul\":14102:14141   */\n      tag_151\n      jump\t// in\n    tag_307:\n        /* \"#utility.yul\":14075:14076   */\n      0x01\n        /* \"#utility.yul\":14068:14073   */\n      dup2\n        /* \"#utility.yul\":14064:14077   */\n      add\n        /* \"#utility.yul\":14055:14077   */\n      swap1\n      pop\n        /* \"#utility.yul\":14031:14151   */\n      jump(tag_304)\n    tag_306:\n        /* \"#utility.yul\":13971:14157   */\n      pop\n      pop\n      jump\t// out\n        /* \"#utility.yul\":14163:14706   */\n    tag_153:\n        /* \"#utility.yul\":14264:14266   */\n      0x1f\n        /* \"#utility.yul\":14259:14262   */\n      dup3\n        /* \"#utility.yul\":14256:14267   */\n      gt\n        /* \"#utility.yul\":14253:14699   */\n      iszero\n      tag_309\n      jumpi\n        /* \"#utility.yul\":14298:14336   */\n      tag_310\n        /* \"#utility.yul\":14330:14335   */\n      dup2\n        /* \"#utility.yul\":14298:14336   */\n      tag_142\n      jump\t// in\n    tag_310:\n        /* \"#utility.yul\":14382:14411   */\n      tag_311\n        /* \"#utility.yul\":14400:14410   */\n      dup5\n        /* \"#utility.yul\":14382:14411   */\n      tag_143\n      jump\t// in\n    tag_311:\n        /* \"#utility.yul\":14372:14380   */\n      dup2\n        /* \"#utility.yul\":14368:14412   */\n      add\n        /* \"#utility.yul\":14565:14567   */\n      0x20\n        /* \"#utility.yul\":14553:14563   */\n      dup6\n        /* \"#utility.yul\":14550:14568   */\n      lt\n        /* \"#utility.yul\":14547:14596   */\n      iszero\n      tag_312\n      jumpi\n        /* \"#utility.yul\":14586:14594   */\n      dup2\n        /* \"#utility.yul\":14571:14594   */\n      swap1\n      pop\n        /* \"#utility.yul\":14547:14596   */\n    tag_312:\n        /* \"#utility.yul\":14609:14689   */\n      tag_313\n        /* \"#utility.yul\":14665:14687   */\n      tag_314\n        /* \"#utility.yul\":14683:14686   */\n      dup6\n        /* \"#utility.yul\":14665:14687   */\n      tag_143\n      jump\t// in\n    tag_314:\n        /* \"#utility.yul\":14655:14663   */\n      dup4\n        /* \"#utility.yul\":14651:14688   */\n      add\n        /* \"#utility.yul\":14638:14649   */\n      dup3\n        /* \"#utility.yul\":14609:14689   */\n      tag_152\n      jump\t// in\n    tag_313:\n        /* \"#utility.yul\":14268:14699   */\n      pop\n      pop\n        /* \"#utility.yul\":14253:14699   */\n    tag_309:\n        /* \"#utility.yul\":14163:14706   */\n      pop\n      pop\n      pop\n      jump\t// out\n        /* \"#utility.yul\":14712:14829   */\n    tag_154:\n        /* \"#utility.yul\":14766:14774   */\n      0x00\n        /* \"#utility.yul\":14816:14821   */\n      dup3\n        /* \"#utility.yul\":14810:14814   */\n      dup3\n        /* \"#utility.yul\":14806:14822   */\n      shr\n        /* \"#utility.yul\":14785:14822   */\n      swap1\n      pop\n        /* \"#utility.yul\":14712:14829   */\n      swap3\n      swap2\n      pop\n      pop\n      jump\t// out\n        /* \"#utility.yul\":14835:15004   */\n    tag_155:\n        /* \"#utility.yul\":14879:14885   */\n      0x00\n        /* \"#utility.yul\":14912:14963   */\n      tag_317\n        /* \"#utility.yul\":14960:14961   */\n      0x00\n        /* \"#utility.yul\":14956:14962   */\n      not\n        /* \"#utility.yul\":14948:14953   */\n      dup5\n        /* \"#utility.yul\":14945:14946   */\n      0x08\n        /* \"#utility.yul\":14941:14954   */\n      mul\n        /* \"#utility.yul\":14912:14963   */\n      tag_154\n      jump\t// in\n    tag_317:\n        /* \"#utility.yul\":14908:14964   */\n      not\n        /* \"#utility.yul\":14993:14997   */\n      dup1\n        /* \"#utility.yul\":14987:14991   */\n      dup4\n        /* \"#utility.yul\":14983:14998   */\n      and\n        /* \"#utility.yul\":14973:14998   */\n      swap2\n      pop\n        /* \"#utility.yul\":14886:15004   */\n      pop\n        /* \"#utility.yul\":14835:15004   */\n      swap3\n      swap2\n      pop\n      pop\n      jump\t// out\n        /* \"#utility.yul\":15009:15304   */\n    tag_156:\n        /* \"#utility.yul\":15085:15089   */\n      0x00\n        /* \"#utility.yul\":15231:15260   */\n      tag_319\n        /* \"#utility.yul\":15256:15259   */\n      dup4\n        /* \"#utility.yul\":15250:15254   */\n      dup4\n        /* \"#utility.yul\":15231:15260   */\n      tag_155\n      jump\t// in\n    tag_319:\n        /* \"#utility.yul\":15223:15260   */\n      swap2\n      pop\n        /* \"#utility.yul\":15293:15296   */\n      dup3\n        /* \"#utility.yul\":15290:15291   */\n      0x02\n        /* \"#utility.yul\":15286:15297   */\n      mul\n        /* \"#utility.yul\":15280:15284   */\n      dup3\n        /* \"#utility.yul\":15277:15298   */\n      or\n        /* \"#utility.yul\":15269:15298   */\n      swap1\n      pop\n        /* \"#utility.yul\":15009:15304   */\n      swap3\n      swap2\n      pop\n      pop\n      jump\t// out\n        /* \"#utility.yul\":15309:16760   */\n    tag_58:\n        /* \"#utility.yul\":15420:15423   */\n      dup2\n        /* \"#utility.yul\":15414:15418   */\n      dup2\n        /* \"#utility.yul\":15411:15424   */\n      sub\n        /* \"#utility.yul\":15408:15434   */\n      tag_321\n      jumpi\n        /* \"#utility.yul\":15427:15432   */\n      pop\n      pop\n      jump(tag_320)\n        /* \"#utility.yul\":15408:15434   */\n    tag_321:\n        /* \"#utility.yul\":15458:15492   */\n      tag_322\n        /* \"#utility.yul\":15488:15491   */\n      dup3\n        /* \"#utility.yul\":15458:15492   */\n      tag_141\n      jump\t// in\n    tag_322:\n        /* \"#utility.yul\":15557:15575   */\n      0xffffffffffffffff\n        /* \"#utility.yul\":15549:15555   */\n      dup2\n        /* \"#utility.yul\":15546:15576   */\n      gt\n        /* \"#utility.yul\":15543:15599   */\n      iszero\n      tag_323\n      jumpi\n        /* \"#utility.yul\":15579:15597   */\n      tag_324\n      tag_114\n      jump\t// in\n    tag_324:\n        /* \"#utility.yul\":15543:15599   */\n    tag_323:\n        /* \"#utility.yul\":15623:15661   */\n      tag_325\n        /* \"#utility.yul\":15655:15659   */\n      dup3\n        /* \"#utility.yul\":15649:15660   */\n      sload\n        /* \"#utility.yul\":15623:15661   */\n      tag_87\n      jump\t// in\n    tag_325:\n        /* \"#utility.yul\":15708:15775   */\n      tag_326\n        /* \"#utility.yul\":15768:15774   */\n      dup3\n        /* \"#utility.yul\":15760:15766   */\n      dup3\n        /* \"#utility.yul\":15754:15758   */\n      dup6\n        /* \"#utility.yul\":15708:15775   */\n      tag_153\n      jump\t// in\n    tag_326:\n        /* \"#utility.yul\":15802:15803   */\n      0x00\n        /* \"#utility.yul\":15831:15833   */\n      0x1f\n        /* \"#utility.yul\":15823:15829   */\n      dup4\n        /* \"#utility.yul\":15820:15834   */\n      gt\n        /* \"#utility.yul\":15848:15849   */\n      0x01\n        /* \"#utility.yul\":15843:16515   */\n      dup2\n      eq\n      tag_328\n      jumpi\n        /* \"#utility.yul\":16559:16560   */\n      0x00\n        /* \"#utility.yul\":16576:16582   */\n      dup5\n        /* \"#utility.yul\":16573:16650   */\n      iszero\n      tag_329\n      jumpi\n        /* \"#utility.yul\":16625:16634   */\n      dup3\n        /* \"#utility.yul\":16620:16623   */\n      dup8\n        /* \"#utility.yul\":16616:16635   */\n      add\n        /* \"#utility.yul\":16610:16636   */\n      sload\n        /* \"#utility.yul\":16601:16636   */\n      swap1\n      pop\n        /* \"#utility.yul\":16573:16650   */\n    tag_329:\n        /* \"#utility.yul\":16676:16743   */\n      tag_330\n        /* \"#utility.yul\":16736:16742   */\n      dup6\n        /* \"#utility.yul\":16729:16734   */\n      dup3\n        /* \"#utility.yul\":16676:16743   */\n      tag_156\n      jump\t// in\n    tag_330:\n        /* \"#utility.yul\":16670:16674   */\n      dup7\n        /* \"#utility.yul\":16663:16744   */\n      sstore\n        /* \"#utility.yul\":16532:16754   */\n      pop\n        /* \"#utility.yul\":15813:16754   */\n      jump(tag_327)\n        /* \"#utility.yul\":15843:16515   */\n    tag_328:\n        /* \"#utility.yul\":15895:15899   */\n      0x1f\n        /* \"#utility.yul\":15891:15900   */\n      not\n        /* \"#utility.yul\":15883:15889   */\n      dup5\n        /* \"#utility.yul\":15879:15901   */\n      and\n        /* \"#utility.yul\":15921:15957   */\n      tag_331\n        /* \"#utility.yul\":15953:15956   */\n      dup8\n        /* \"#utility.yul\":15921:15957   */\n      tag_142\n      jump\t// in\n    tag_331:\n        /* \"#utility.yul\":15914:15957   */\n      swap7\n      pop\n        /* \"#utility.yul\":15984:16021   */\n      tag_332\n        /* \"#utility.yul\":16016:16020   */\n      dup7\n        /* \"#utility.yul\":15984:16021   */\n      tag_142\n      jump\t// in\n    tag_332:\n        /* \"#utility.yul\":16043:16044   */\n      0x00\n        /* \"#utility.yul\":16057:16264   */\n    tag_333:\n        /* \"#utility.yul\":16071:16078   */\n      dup3\n        /* \"#utility.yul\":16068:16069   */\n      dup2\n        /* \"#utility.yul\":16065:16079   */\n      lt\n        /* \"#utility.yul\":16057:16264   */\n      iszero\n      tag_335\n      jumpi\n        /* \"#utility.yul\":16150:16159   */\n      dup5\n        /* \"#utility.yul\":16145:16148   */\n      dup10\n        /* \"#utility.yul\":16141:16160   */\n      add\n        /* \"#utility.yul\":16135:16161   */\n      sload\n        /* \"#utility.yul\":16127:16133   */\n      dup3\n        /* \"#utility.yul\":16120:16162   */\n      sstore\n        /* \"#utility.yul\":16201:16202   */\n      0x01\n        /* \"#utility.yul\":16193:16199   */\n      dup3\n        /* \"#utility.yul\":16189:16203   */\n      add\n        /* \"#utility.yul\":16179:16203   */\n      swap2\n      pop\n        /* \"#utility.yul\":16248:16249   */\n      0x01\n        /* \"#utility.yul\":16237:16246   */\n      dup6\n        /* \"#utility.yul\":16233:16250   */\n      add\n        /* \"#utility.yul\":16220:16250   */\n      swap5\n      pop\n        /* \"#utility.yul\":16094:16098   */\n      0x20\n        /* \"#utility.yul\":16091:16092   */\n      dup2\n        /* \"#utility.yul\":16087:16099   */\n      add\n        /* \"#utility.yul\":16082:16099   */\n      swap1\n      pop\n        /* \"#utility.yul\":16057:16264   */\n      jump(tag_333)\n    tag_335:\n        /* \"#utility.yul\":16292:16298   */\n      dup7\n        /* \"#utility.yul\":16283:16290   */\n      dup4\n        /* \"#utility.yul\":16280:16299   */\n      lt\n        /* \"#utility.yul\":16277:16456   */\n      iszero\n      tag_336\n      jumpi\n        /* \"#utility.yul\":16350:16359   */\n      dup5\n        /* \"#utility.yul\":16345:16348   */\n      dup10\n        /* \"#utility.yul\":16341:16360   */\n      add\n        /* \"#utility.yul\":16335:16361   */\n      sload\n        /* \"#utility.yul\":16393:16441   */\n      tag_337\n        /* \"#utility.yul\":16435:16439   */\n      0x1f\n        /* \"#utility.yul\":16427:16433   */\n      dup10\n        /* \"#utility.yul\":16423:16440   */\n      and\n        /* \"#utility.yul\":16412:16421   */\n      dup3\n        /* \"#utility.yul\":16393:16441   */\n      tag_155\n      jump\t// in\n    tag_337:\n        /* \"#utility.yul\":16385:16391   */\n      dup4\n        /* \"#utility.yul\":16378:16442   */\n      sstore\n        /* \"#utility.yul\":16300:16456   */\n      pop\n        /* \"#utility.yul\":16277:16456   */\n    tag_336:\n        /* \"#utility.yul\":16502:16503   */\n      0x01\n        /* \"#utility.yul\":16498:16499   */\n      0x02\n        /* \"#utility.yul\":16490:16496   */\n      dup9\n        /* \"#utility.yul\":16486:16500   */\n      mul\n        /* \"#utility.yul\":16482:16504   */\n      add\n        /* \"#utility.yul\":16476:16480   */\n      dup9\n        /* \"#utility.yul\":16469:16505   */\n      sstore\n        /* \"#utility.yul\":15850:16515   */\n      pop\n      pop\n      pop\n        /* \"#utility.yul\":15813:16754   */\n    tag_327:\n      pop\n        /* \"#utility.yul\":15398:16760   */\n      pop\n      pop\n      pop\n        /* \"#utility.yul\":15309:16760   */\n      pop\n      pop\n    tag_320:\n      jump\t// out\n        /* \"#utility.yul\":16766:16946   */\n    tag_61:\n        /* \"#utility.yul\":16814:16891   */\n      0x4e487b7100000000000000000000000000000000000000000000000000000000\n        /* \"#utility.yul\":16811:16812   */\n      0x00\n        /* \"#utility.yul\":16804:16892   */\n      mstore\n        /* \"#utility.yul\":16911:16915   */\n      0x31\n        /* \"#utility.yul\":16908:16909   */\n      0x04\n        /* \"#utility.yul\":16901:16916   */\n      mstore\n        /* \"#utility.yul\":16935:16939   */\n      0x24\n        /* \"#utility.yul\":16932:16933   */\n      0x00\n        /* \"#utility.yul\":16925:16940   */\n      revert\n        /* \"#utility.yul\":16952:18347   */\n    tag_81:\n        /* \"#utility.yul\":17069:17106   */\n      tag_340\n        /* \"#utility.yul\":17102:17105   */\n      dup3\n        /* \"#utility.yul\":17069:17106   */\n      tag_127\n      jump\t// in\n    tag_340:\n        /* \"#utility.yul\":17171:17189   */\n      0xffffffffffffffff\n        /* \"#utility.yul\":17163:17169   */\n      dup2\n        /* \"#utility.yul\":17160:17190   */\n      gt\n        /* \"#utility.yul\":17157:17213   */\n      iszero\n      tag_341\n      jumpi\n        /* \"#utility.yul\":17193:17211   */\n      tag_342\n      tag_114\n      jump\t// in\n    tag_342:\n        /* \"#utility.yul\":17157:17213   */\n    tag_341:\n        /* \"#utility.yul\":17237:17275   */\n      tag_343\n        /* \"#utility.yul\":17269:17273   */\n      dup3\n        /* \"#utility.yul\":17263:17274   */\n      sload\n        /* \"#utility.yul\":17237:17275   */\n      tag_87\n      jump\t// in\n    tag_343:\n        /* \"#utility.yul\":17322:17389   */\n      tag_344\n        /* \"#utility.yul\":17382:17388   */\n      dup3\n        /* \"#utility.yul\":17374:17380   */\n      dup3\n        /* \"#utility.yul\":17368:17372   */\n      dup6\n        /* \"#utility.yul\":17322:17389   */\n      tag_153\n      jump\t// in\n    tag_344:\n        /* \"#utility.yul\":17416:17417   */\n      0x00\n        /* \"#utility.yul\":17440:17444   */\n      0x20\n        /* \"#utility.yul\":17427:17444   */\n      swap1\n      pop\n        /* \"#utility.yul\":17472:17474   */\n      0x1f\n        /* \"#utility.yul\":17464:17470   */\n      dup4\n        /* \"#utility.yul\":17461:17475   */\n      gt\n        /* \"#utility.yul\":17489:17490   */\n      0x01\n        /* \"#utility.yul\":17484:18102   */\n      dup2\n      eq\n      tag_346\n      jumpi\n        /* \"#utility.yul\":18146:18147   */\n      0x00\n        /* \"#utility.yul\":18163:18169   */\n      dup5\n        /* \"#utility.yul\":18160:18237   */\n      iszero\n      tag_347\n      jumpi\n        /* \"#utility.yul\":18212:18221   */\n      dup3\n        /* \"#utility.yul\":18207:18210   */\n      dup8\n        /* \"#utility.yul\":18203:18222   */\n      add\n        /* \"#utility.yul\":18197:18223   */\n      mload\n        /* \"#utility.yul\":18188:18223   */\n      swap1\n      pop\n        /* \"#utility.yul\":18160:18237   */\n    tag_347:\n        /* \"#utility.yul\":18263:18330   */\n      tag_348\n        /* \"#utility.yul\":18323:18329   */\n      dup6\n        /* \"#utility.yul\":18316:18321   */\n      dup3\n        /* \"#utility.yul\":18263:18330   */\n      tag_156\n      jump\t// in\n    tag_348:\n        /* \"#utility.yul\":18257:18261   */\n      dup7\n        /* \"#utility.yul\":18250:18331   */\n      sstore\n        /* \"#utility.yul\":18119:18341   */\n      pop\n        /* \"#utility.yul\":17454:18341   */\n      jump(tag_345)\n        /* \"#utility.yul\":17484:18102   */\n    tag_346:\n        /* \"#utility.yul\":17536:17540   */\n      0x1f\n        /* \"#utility.yul\":17532:17541   */\n      not\n        /* \"#utility.yul\":17524:17530   */\n      dup5\n        /* \"#utility.yul\":17520:17542   */\n      and\n        /* \"#utility.yul\":17570:17607   */\n      tag_349\n        /* \"#utility.yul\":17602:17606   */\n      dup7\n        /* \"#utility.yul\":17570:17607   */\n      tag_142\n      jump\t// in\n    tag_349:\n        /* \"#utility.yul\":17629:17630   */\n      0x00\n        /* \"#utility.yul\":17643:17851   */\n    tag_350:\n        /* \"#utility.yul\":17657:17664   */\n      dup3\n        /* \"#utility.yul\":17654:17655   */\n      dup2\n        /* \"#utility.yul\":17651:17665   */\n      lt\n        /* \"#utility.yul\":17643:17851   */\n      iszero\n      tag_352\n      jumpi\n        /* \"#utility.yul\":17736:17745   */\n      dup5\n        /* \"#utility.yul\":17731:17734   */\n      dup10\n        /* \"#utility.yul\":17727:17746   */\n      add\n        /* \"#utility.yul\":17721:17747   */\n      mload\n        /* \"#utility.yul\":17713:17719   */\n      dup3\n        /* \"#utility.yul\":17706:17748   */\n      sstore\n        /* \"#utility.yul\":17787:17788   */\n      0x01\n        /* \"#utility.yul\":17779:17785   */\n      dup3\n        /* \"#utility.yul\":17775:17789   */\n      add\n        /* \"#utility.yul\":17765:17789   */\n      swap2\n      pop\n        /* \"#utility.yul\":17834:17836   */\n      0x20\n        /* \"#utility.yul\":17823:17832   */\n      dup6\n        /* \"#utility.yul\":17819:17837   */\n      add\n        /* \"#utility.yul\":17806:17837   */\n      swap5\n      pop\n        /* \"#utility.yul\":17680:17684   */\n      0x20\n        /* \"#utility.yul\":17677:17678   */\n      dup2\n        /* \"#utility.yul\":17673:17685   */\n      add\n        /* \"#utility.yul\":17668:17685   */\n      swap1\n      pop\n        /* \"#utility.yul\":17643:17851   */\n      jump(tag_350)\n    tag_352:\n        /* \"#utility.yul\":17879:17885   */\n      dup7\n        /* \"#utility.yul\":17870:17877   */\n      dup4\n        /* \"#utility.yul\":17867:17886   */\n      lt\n        /* \"#utility.yul\":17864:18043   */\n      iszero\n      tag_353\n      jumpi\n        /* \"#utility.yul\":17937:17946   */\n      dup5\n        /* \"#utility.yul\":17932:17935   */\n      dup10\n        /* \"#utility.yul\":17928:17947   */\n      add\n        /* \"#utility.yul\":17922:17948   */\n      mload\n        /* \"#utility.yul\":17980:18028   */\n      tag_354\n        /* \"#utility.yul\":18022:18026   */\n      0x1f\n        /* \"#utility.yul\":18014:18020   */\n      dup10\n        /* \"#utility.yul\":18010:18027   */\n      and\n        /* \"#utility.yul\":17999:18008   */\n      dup3\n        /* \"#utility.yul\":17980:18028   */\n      tag_155\n      jump\t// in\n    tag_354:\n        /* \"#utility.yul\":17972:17978   */\n      dup4\n        /* \"#utility.yul\":17965:18029   */\n      sstore\n        /* \"#utility.yul\":17887:18043   */\n      pop\n        /* \"#utility.yul\":17864:18043   */\n    tag_353:\n        /* \"#utility.yul\":18089:18090   */\n      0x01\n        /* \"#utility.yul\":18085:18086   */\n      0x02\n        /* \"#utility.yul\":18077:18083   */\n      dup9\n        /* \"#utility.yul\":18073:18087   */\n      mul\n        /* \"#utility.yul\":18069:18091   */\n      add\n        /* \"#utility.yul\":18063:18067   */\n      dup9\n        /* \"#utility.yul\":18056:18092   */\n      sstore\n        /* \"#utility.yul\":17491:18102   */\n      pop\n      pop\n      pop\n        /* \"#utility.yul\":17454:18341   */\n    tag_345:\n      pop\n        /* \"#utility.yul\":17044:18347   */\n      pop\n      pop\n      pop\n        /* \"#utility.yul\":16952:18347   */\n      pop\n      pop\n      jump\t// out\n\n    auxdata: 0xa26469706673582212202a765bace91c45f34aa56db981392ffb2ff321c10e1e1173521acabe34a9b70b64736f6c634300081f0033\n}\n",
				"bytecode": {
					"linkReferences": {},
					"object": "6080604052348015600e575f5ffd5b50335f5f6101000a81548173ffffffffffffffffffffffffffffffffffffffff021916908373ffffffffffffffffffffffffffffffffffffffff1602179055506111208061005b5f395ff3fe608060405260043610610049575f3560e01c80632a08deda1461004d578063369a489d146100775780636e7301fd1461009f578063b499b79a146100a9578063e83a1b00146100d1575b5f5ffd5b348015610058575f5ffd5b506100616100fb565b60405161006e919061075d565b60405180910390f35b348015610082575f5ffd5b5061009d600480360381019061009891906107e1565b610102565b005b6100a7610398565b005b3480156100b4575f5ffd5b506100cf60048036038101906100ca91906109ad565b61039a565b005b3480156100dc575f5ffd5b506100e56105a3565b6040516100f29190610b9f565b60405180910390f35b5f47905090565b5f5f9054906101000a900473ffffffffffffffffffffffffffffffffffffffff1673ffffffffffffffffffffffffffffffffffffffff163373ffffffffffffffffffffffffffffffffffffffff1614610190576040517f08c379a000000000000000000000000000000000000000000000000000000000815260040161018790610c19565b60405180910390fd5b6001808054905010610395575f5f90505b600180549050811015610393578173ffffffffffffffffffffffffffffffffffffffff16600182815481106101d9576101d8610c37565b5b905f5260205f2090600302015f015f9054906101000a900473ffffffffffffffffffffffffffffffffffffffff1673ffffffffffffffffffffffffffffffffffffffff1603610386575f8190505b600180805490506102389190610c91565b81101561031c576001808261024d9190610cc4565b8154811061025e5761025d610c37565b5b905f5260205f2090600302016001828154811061027e5761027d610c37565b5b905f5260205f2090600302015f82015f9054906101000a900473ffffffffffffffffffffffffffffffffffffffff16815f015f6101000a81548173ffffffffffffffffffffffffffffffffffffffff021916908373ffffffffffffffffffffffffffffffffffffffff160217905550600182018160010190816103019190610f09565b50600282015481600201559050508080600101915050610227565b50600180548061032f5761032e610fee565b5b600190038181905f5260205f2090600302015f5f82015f6101000a81549073ffffffffffffffffffffffffffffffffffffffff0219169055600182015f61037691906106ed565b600282015f905550509055610393565b80806001019150506101a1565b505b50565b565b5f5f9054906101000a900473ffffffffffffffffffffffffffffffffffffffff1673ffffffffffffffffffffffffffffffffffffffff163373ffffffffffffffffffffffffffffffffffffffff1614610428576040517f08c379a000000000000000000000000000000000000000000000000000000000815260040161041f90610c19565b60405180910390fd5b5f5f905060018080549050106104d2575f5f90505b6001805490508110156104d0578473ffffffffffffffffffffffffffffffffffffffff166001828154811061047557610474610c37565b5b905f5260205f2090600302015f015f9054906101000a900473ffffffffffffffffffffffffffffffffffffffff1673ffffffffffffffffffffffffffffffffffffffff16036104c357600191505b808060010191505061043d565b505b5f15158115150361059d57600160405180606001604052808673ffffffffffffffffffffffffffffffffffffffff16815260200185815260200184815250908060018154018082558091505060019003905f5260205f2090600302015f909190919091505f820151815f015f6101000a81548173ffffffffffffffffffffffffffffffffffffffff021916908373ffffffffffffffffffffffffffffffffffffffff160217905550602082015181600101908161058f919061101b565b506040820151816002015550505b50505050565b60606001805480602002602001604051908101604052809291908181526020015f905b828210156106e4578382905f5260205f2090600302016040518060600160405290815f82015f9054906101000a900473ffffffffffffffffffffffffffffffffffffffff1673ffffffffffffffffffffffffffffffffffffffff1673ffffffffffffffffffffffffffffffffffffffff16815260200160018201805461064b90610d24565b80601f016020809104026020016040519081016040528092919081815260200182805461067790610d24565b80156106c25780601f10610699576101008083540402835291602001916106c2565b820191905f5260205f20905b8154815290600101906020018083116106a557829003601f168201915b50505050508152602001600282015481525050815260200190600101906105c6565b50505050905090565b5080546106f990610d24565b5f825580601f1061070a5750610727565b601f0160209004905f5260205f2090810190610726919061072a565b5b50565b5b80821115610741575f815f90555060010161072b565b5090565b5f819050919050565b61075781610745565b82525050565b5f6020820190506107705f83018461074e565b92915050565b5f604051905090565b5f5ffd5b5f5ffd5b5f73ffffffffffffffffffffffffffffffffffffffff82169050919050565b5f6107b082610787565b9050919050565b6107c0816107a6565b81146107ca575f5ffd5b50565b5f813590506107db816107b7565b92915050565b5f602082840312156107f6576107f561077f565b5b5f610803848285016107cd565b91505092915050565b5f61081682610787565b9050919050565b6108268161080c565b8114610830575f5ffd5b50565b5f813590506108418161081d565b92915050565b5f5ffd5b5f5ffd5b5f601f19601f8301169050919050565b7f4e487b71000000000000000000000000000000000000000000000000000000005f52604160045260245ffd5b6108958261084f565b810181811067ffffffffffffffff821117156108b4576108b361085f565b5b80604052505050565b5f6108c6610776565b90506108d2828261088c565b919050565b5f67ffffffffffffffff8211156108f1576108f061085f565b5b6108fa8261084f565b9050602081019050919050565b828183375f83830152505050565b5f610927610922846108d7565b6108bd565b9050828152602081018484840111156109435761094261084b565b5b61094e848285610907565b509392505050565b5f82601f83011261096a57610969610847565b5b813561097a848260208601610915565b91505092915050565b61098c81610745565b8114610996575f5ffd5b50565b5f813590506109a781610983565b92915050565b5f5f5f606084860312156109c4576109c361077f565b5b5f6109d186828701610833565b935050602084013567ffffffffffffffff8111156109f2576109f1610783565b5b6109fe86828701610956565b9250506040610a0f86828701610999565b9150509250925092565b5f81519050919050565b5f82825260208201905092915050565b5f819050602082019050919050565b610a4b8161080c565b82525050565b5f81519050919050565b5f82825260208201905092915050565b8281835e5f83830152505050565b5f610a8382610a51565b610a8d8185610a5b565b9350610a9d818560208601610a6b565b610aa68161084f565b840191505092915050565b610aba81610745565b82525050565b5f606083015f830151610ad55f860182610a42565b5060208301518482036020860152610aed8282610a79565b9150506040830151610b026040860182610ab1565b508091505092915050565b5f610b188383610ac0565b905092915050565b5f602082019050919050565b5f610b3682610a19565b610b408185610a23565b935083602082028501610b5285610a33565b805f5b85811015610b8d5784840389528151610b6e8582610b0d565b9450610b7983610b20565b925060208a01995050600181019050610b55565b50829750879550505050505092915050565b5f6020820190508181035f830152610bb78184610b2c565b905092915050565b5f82825260208201905092915050565b7f4f6e6c79206f776e65722063616e2063616c6c000000000000000000000000005f82015250565b5f610c03601383610bbf565b9150610c0e82610bcf565b602082019050919050565b5f6020820190508181035f830152610c3081610bf7565b9050919050565b7f4e487b71000000000000000000000000000000000000000000000000000000005f52603260045260245ffd5b7f4e487b71000000000000000000000000000000000000000000000000000000005f52601160045260245ffd5b5f610c9b82610745565b9150610ca683610745565b9250828203905081811115610cbe57610cbd610c64565b5b92915050565b5f610cce82610745565b9150610cd983610745565b9250828201905080821115610cf157610cf0610c64565b5b92915050565b7f4e487b71000000000000000000000000000000000000000000000000000000005f52602260045260245ffd5b5f6002820490506001821680610d3b57607f821691505b602082108103610d4e57610d4d610cf7565b5b50919050565b5f81549050610d6281610d24565b9050919050565b5f819050815f5260205f209050919050565b5f6020601f8301049050919050565b5f82821b905092915050565b5f60088302610dc57fffffffffffffffffffffffffffffffffffffffffffffffffffffffffffffffff82610d8a565b610dcf8683610d8a565b95508019841693508086168417925050509392505050565b5f819050919050565b5f610e0a610e05610e0084610745565b610de7565b610745565b9050919050565b5f819050919050565b610e2383610df0565b610e37610e2f82610e11565b848454610d96565b825550505050565b5f5f905090565b610e4e610e3f565b610e59818484610e1a565b505050565b5b81811015610e7c57610e715f82610e46565b600181019050610e5f565b5050565b601f821115610ec157610e9281610d69565b610e9b84610d7b565b81016020851015610eaa578190505b610ebe610eb685610d7b565b830182610e5e565b50505b505050565b5f82821c905092915050565b5f610ee15f1984600802610ec6565b1980831691505092915050565b5f610ef98383610ed2565b9150826002028217905092915050565b818103610f17575050610fec565b610f2082610d54565b67ffffffffffffffff811115610f3957610f3861085f565b5b610f438254610d24565b610f4e828285610e80565b5f601f831160018114610f7b575f8415610f69578287015490505b610f738582610eee565b865550610fe5565b601f198416610f8987610d69565b9650610f9486610d69565b5f5b82811015610fbb57848901548255600182019150600185019450602081019050610f96565b86831015610fd85784890154610fd4601f891682610ed2565b8355505b6001600288020188555050505b5050505050505b565b7f4e487b71000000000000000000000000000000000000000000000000000000005f52603160045260245ffd5b61102482610a51565b67ffffffffffffffff81111561103d5761103c61085f565b5b6110478254610d24565b611052828285610e80565b5f60209050601f831160018114611083575f8415611071578287015190505b61107b8582610eee565b8655506110e2565b601f19841661109186610d69565b5f5b828110156110b857848901518255600182019150602085019450602081019050611093565b868310156110d557848901516110d1601f891682610ed2565b8355505b6001600288020188555050505b50505050505056fea26469706673582212202a765bace91c45f34aa56db981392ffb2ff321c10e1e1173521acabe34a9b70b64736f6c634300081f0033",
					"opcodes": "PUSH1 0x80 PUSH1 0x40 MSTORE CALLVALUE DUP1 ISZERO PUSH1 0xE JUMPI PUSH0 PUSH0 REVERT JUMPDEST POP CALLER PUSH0 PUSH0 PUSH2 0x100 EXP DUP2 SLOAD DUP2 PUSH20 0xFFFFFFFFFFFFFFFFFFFFFFFFFFFFFFFFFFFFFFFF MUL NOT AND SWAP1 DUP4 PUSH20 0xFFFFFFFFFFFFFFFFFFFFFFFFFFFFFFFFFFFFFFFF AND MUL OR SWAP1 SSTORE POP PUSH2 0x1120 DUP1 PUSH2 0x5B PUSH0 CODECOPY PUSH0 RETURN INVALID PUSH1 0x80 PUSH1 0x40 MSTORE PUSH1 0x4 CALLDATASIZE LT PUSH2 0x49 JUMPI PUSH0 CALLDATALOAD PUSH1 0xE0 SHR DUP1 PUSH4 0x2A08DEDA EQ PUSH2 0x4D JUMPI DUP1 PUSH4 0x369A489D EQ PUSH2 0x77 JUMPI DUP1 PUSH4 0x6E7301FD EQ PUSH2 0x9F JUMPI DUP1 PUSH4 0xB499B79A EQ PUSH2 0xA9 JUMPI DUP1 PUSH4 0xE83A1B00 EQ PUSH2 0xD1 JUMPI JUMPDEST PUSH0 PUSH0 REVERT JUMPDEST CALLVALUE DUP1 ISZERO PUSH2 0x58 JUMPI PUSH0 PUSH0 REVERT JUMPDEST POP PUSH2 0x61 PUSH2 0xFB JUMP JUMPDEST PUSH1 0x40 MLOAD PUSH2 0x6E SWAP2 SWAP1 PUSH2 0x75D JUMP JUMPDEST PUSH1 0x40 MLOAD DUP1 SWAP2 SUB SWAP1 RETURN JUMPDEST CALLVALUE DUP1 ISZERO PUSH2 0x82 JUMPI PUSH0 PUSH0 REVERT JUMPDEST POP PUSH2 0x9D PUSH1 0x4 DUP1 CALLDATASIZE SUB DUP2 ADD SWAP1 PUSH2 0x98 SWAP2 SWAP1 PUSH2 0x7E1 JUMP JUMPDEST PUSH2 0x102 JUMP JUMPDEST STOP JUMPDEST PUSH2 0xA7 PUSH2 0x398 JUMP JUMPDEST STOP JUMPDEST CALLVALUE DUP1 ISZERO PUSH2 0xB4 JUMPI PUSH0 PUSH0 REVERT JUMPDEST POP PUSH2 0xCF PUSH1 0x4 DUP1 CALLDATASIZE SUB DUP2 ADD SWAP1 PUSH2 0xCA SWAP2 SWAP1 PUSH2 0x9AD JUMP JUMPDEST PUSH2 0x39A JUMP JUMPDEST STOP JUMPDEST CALLVALUE DUP1 ISZERO PUSH2 0xDC JUMPI PUSH0 PUSH0 REVERT JUMPDEST POP PUSH2 0xE5 PUSH2 0x5A3 JUMP JUMPDEST PUSH1 0x40 MLOAD PUSH2 0xF2 SWAP2 SWAP1 PUSH2 0xB9F JUMP JUMPDEST PUSH1 0x40 MLOAD DUP1 SWAP2 SUB SWAP1 RETURN JUMPDEST PUSH0 SELFBALANCE SWAP1 POP SWAP1 JUMP JUMPDEST PUSH0 PUSH0 SWAP1 SLOAD SWAP1 PUSH2 0x100 EXP SWAP1 DIV PUSH20 0xFFFFFFFFFFFFFFFFFFFFFFFFFFFFFFFFFFFFFFFF AND PUSH20 0xFFFFFFFFFFFFFFFFFFFFFFFFFFFFFFFFFFFFFFFF AND CALLER PUSH20 0xFFFFFFFFFFFFFFFFFFFFFFFFFFFFFFFFFFFFFFFF AND EQ PUSH2 0x190 JUMPI PUSH1 0x40 MLOAD PUSH32 0x8C379A000000000000000000000000000000000000000000000000000000000 DUP2 MSTORE PUSH1 0x4 ADD PUSH2 0x187 SWAP1 PUSH2 0xC19 JUMP JUMPDEST PUSH1 0x40 MLOAD DUP1 SWAP2 SUB SWAP1 REVERT JUMPDEST PUSH1 0x1 DUP1 DUP1 SLOAD SWAP1 POP LT PUSH2 0x395 JUMPI PUSH0 PUSH0 SWAP1 POP JUMPDEST PUSH1 0x1 DUP1 SLOAD SWAP1 POP DUP2 LT ISZERO PUSH2 0x393 JUMPI DUP2 PUSH20 0xFFFFFFFFFFFFFFFFFFFFFFFFFFFFFFFFFFFFFFFF AND PUSH1 0x1 DUP3 DUP2 SLOAD DUP2 LT PUSH2 0x1D9 JUMPI PUSH2 0x1D8 PUSH2 0xC37 JUMP JUMPDEST JUMPDEST SWAP1 PUSH0 MSTORE PUSH1 0x20 PUSH0 KECCAK256 SWAP1 PUSH1 0x3 MUL ADD PUSH0 ADD PUSH0 SWAP1 SLOAD SWAP1 PUSH2 0x100 EXP SWAP1 DIV PUSH20 0xFFFFFFFFFFFFFFFFFFFFFFFFFFFFFFFFFFFFFFFF AND PUSH20 0xFFFFFFFFFFFFFFFFFFFFFFFFFFFFFFFFFFFFFFFF AND SUB PUSH2 0x386 JUMPI PUSH0 DUP2 SWAP1 POP JUMPDEST PUSH1 0x1 DUP1 DUP1 SLOAD SWAP1 POP PUSH2 0x238 SWAP2 SWAP1 PUSH2 0xC91 JUMP JUMPDEST DUP2 LT ISZERO PUSH2 0x31C JUMPI PUSH1 0x1 DUP1 DUP3 PUSH2 0x24D SWAP2 SWAP1 PUSH2 0xCC4 JUMP JUMPDEST DUP2 SLOAD DUP2 LT PUSH2 0x25E JUMPI PUSH2 0x25D PUSH2 0xC37 JUMP JUMPDEST JUMPDEST SWAP1 PUSH0 MSTORE PUSH1 0x20 PUSH0 KECCAK256 SWAP1 PUSH1 0x3 MUL ADD PUSH1 0x1 DUP3 DUP2 SLOAD DUP2 LT PUSH2 0x27E JUMPI PUSH2 0x27D PUSH2 0xC37 JUMP JUMPDEST JUMPDEST SWAP1 PUSH0 MSTORE PUSH1 0x20 PUSH0 KECCAK256 SWAP1 PUSH1 0x3 MUL ADD PUSH0 DUP3 ADD PUSH0 SWAP1 SLOAD SWAP1 PUSH2 0x100 EXP SWAP1 DIV PUSH20 0xFFFFFFFFFFFFFFFFFFFFFFFFFFFFFFFFFFFFFFFF AND DUP2 PUSH0 ADD PUSH0 PUSH2 0x100 EXP DUP2 SLOAD DUP2 PUSH20 0xFFFFFFFFFFFFFFFFFFFFFFFFFFFFFFFFFFFFFFFF MUL NOT AND SWAP1 DUP4 PUSH20 0xFFFFFFFFFFFFFFFFFFFFFFFFFFFFFFFFFFFFFFFF AND MUL OR SWAP1 SSTORE POP PUSH1 0x1 DUP3 ADD DUP2 PUSH1 0x1 ADD SWAP1 DUP2 PUSH2 0x301 SWAP2 SWAP1 PUSH2 0xF09 JUMP JUMPDEST POP PUSH1 0x2 DUP3 ADD SLOAD DUP2 PUSH1 0x2 ADD SSTORE SWAP1 POP POP DUP1 DUP1 PUSH1 0x1 ADD SWAP2 POP POP PUSH2 0x227 JUMP JUMPDEST POP PUSH1 0x1 DUP1 SLOAD DUP1 PUSH2 0x32F JUMPI PUSH2 0x32E PUSH2 0xFEE JUMP JUMPDEST JUMPDEST PUSH1 0x1 SWAP1 SUB DUP2 DUP2 SWAP1 PUSH0 MSTORE PUSH1 0x20 PUSH0 KECCAK256 SWAP1 PUSH1 0x3 MUL ADD PUSH0 PUSH0 DUP3 ADD PUSH0 PUSH2 0x100 EXP DUP2 SLOAD SWAP1 PUSH20 0xFFFFFFFFFFFFFFFFFFFFFFFFFFFFFFFFFFFFFFFF MUL NOT AND SWAP1 SSTORE PUSH1 0x1 DUP3 ADD PUSH0 PUSH2 0x376 SWAP2 SWAP1 PUSH2 0x6ED JUMP JUMPDEST PUSH1 0x2 DUP3 ADD PUSH0 SWAP1 SSTORE POP POP SWAP1 SSTORE PUSH2 0x393 JUMP JUMPDEST DUP1 DUP1 PUSH1 0x1 ADD SWAP2 POP POP PUSH2 0x1A1 JUMP JUMPDEST POP JUMPDEST POP JUMP JUMPDEST JUMP JUMPDEST PUSH0 PUSH0 SWAP1 SLOAD SWAP1 PUSH2 0x100 EXP SWAP1 DIV PUSH20 0xFFFFFFFFFFFFFFFFFFFFFFFFFFFFFFFFFFFFFFFF AND PUSH20 0xFFFFFFFFFFFFFFFFFFFFFFFFFFFFFFFFFFFFFFFF AND CALLER PUSH20 0xFFFFFFFFFFFFFFFFFFFFFFFFFFFFFFFFFFFFFFFF AND EQ PUSH2 0x428 JUMPI PUSH1 0x40 MLOAD PUSH32 0x8C379A000000000000000000000000000000000000000000000000000000000 DUP2 MSTORE PUSH1 0x4 ADD PUSH2 0x41F SWAP1 PUSH2 0xC19 JUMP JUMPDEST PUSH1 0x40 MLOAD DUP1 SWAP2 SUB SWAP1 REVERT JUMPDEST PUSH0 PUSH0 SWAP1 POP PUSH1 0x1 DUP1 DUP1 SLOAD SWAP1 POP LT PUSH2 0x4D2 JUMPI PUSH0 PUSH0 SWAP1 POP JUMPDEST PUSH1 0x1 DUP1 SLOAD SWAP1 POP DUP2 LT ISZERO PUSH2 0x4D0 JUMPI DUP5 PUSH20 0xFFFFFFFFFFFFFFFFFFFFFFFFFFFFFFFFFFFFFFFF AND PUSH1 0x1 DUP3 DUP2 SLOAD DUP2 LT PUSH2 0x475 JUMPI PUSH2 0x474 PUSH2 0xC37 JUMP JUMPDEST JUMPDEST SWAP1 PUSH0 MSTORE PUSH1 0x20 PUSH0 KECCAK256 SWAP1 PUSH1 0x3 MUL ADD PUSH0 ADD PUSH0 SWAP1 SLOAD SWAP1 PUSH2 0x100 EXP SWAP1 DIV PUSH20 0xFFFFFFFFFFFFFFFFFFFFFFFFFFFFFFFFFFFFFFFF AND PUSH20 0xFFFFFFFFFFFFFFFFFFFFFFFFFFFFFFFFFFFFFFFF AND SUB PUSH2 0x4C3 JUMPI PUSH1 0x1 SWAP2 POP JUMPDEST DUP1 DUP1 PUSH1 0x1 ADD SWAP2 POP POP PUSH2 0x43D JUMP JUMPDEST POP JUMPDEST PUSH0 ISZERO ISZERO DUP2 ISZERO ISZERO SUB PUSH2 0x59D JUMPI PUSH1 0x1 PUSH1 0x40 MLOAD DUP1 PUSH1 0x60 ADD PUSH1 0x40 MSTORE DUP1 DUP7 PUSH20 0xFFFFFFFFFFFFFFFFFFFFFFFFFFFFFFFFFFFFFFFF AND DUP2 MSTORE PUSH1 0x20 ADD DUP6 DUP2 MSTORE PUSH1 0x20 ADD DUP5 DUP2 MSTORE POP SWAP1 DUP1 PUSH1 0x1 DUP2 SLOAD ADD DUP1 DUP3 SSTORE DUP1 SWAP2 POP POP PUSH1 0x1 SWAP1 SUB SWAP1 PUSH0 MSTORE PUSH1 0x20 PUSH0 KECCAK256 SWAP1 PUSH1 0x3 MUL ADD PUSH0 SWAP1 SWAP2 SWAP1 SWAP2 SWAP1 SWAP2 POP PUSH0 DUP3 ADD MLOAD DUP2 PUSH0 ADD PUSH0 PUSH2 0x100 EXP DUP2 SLOAD DUP2 PUSH20 0xFFFFFFFFFFFFFFFFFFFFFFFFFFFFFFFFFFFFFFFF MUL NOT AND SWAP1 DUP4 PUSH20 0xFFFFFFFFFFFFFFFFFFFFFFFFFFFFFFFFFFFFFFFF AND MUL OR SWAP1 SSTORE POP PUSH1 0x20 DUP3 ADD MLOAD DUP2 PUSH1 0x1 ADD SWAP1 DUP2 PUSH2 0x58F SWAP2 SWAP1 PUSH2 0x101B JUMP JUMPDEST POP PUSH1 0x40 DUP3 ADD MLOAD DUP2 PUSH1 0x2 ADD SSTORE POP POP JUMPDEST POP POP POP POP JUMP JUMPDEST PUSH1 0x60 PUSH1 0x1 DUP1 SLOAD DUP1 PUSH1 0x20 MUL PUSH1 0x20 ADD PUSH1 0x40 MLOAD SWAP1 DUP2 ADD PUSH1 0x40 MSTORE DUP1 SWAP3 SWAP2 SWAP1 DUP2 DUP2 MSTORE PUSH1 0x20 ADD PUSH0 SWAP1 JUMPDEST DUP3 DUP3 LT ISZERO PUSH2 0x6E4 JUMPI DUP4 DUP3 SWAP1 PUSH0 MSTORE PUSH1 0x20 PUSH0 KECCAK256 SWAP1 PUSH1 0x3 MUL ADD PUSH1 0x40 MLOAD DUP1 PUSH1 0x60 ADD PUSH1 0x40 MSTORE SWAP1 DUP2 PUSH0 DUP3 ADD PUSH0 SWAP1 SLOAD SWAP1 PUSH2 0x100 EXP SWAP1 DIV PUSH20 0xFFFFFFFFFFFFFFFFFFFFFFFFFFFFFFFFFFFFFFFF AND PUSH20 0xFFFFFFFFFFFFFFFFFFFFFFFFFFFFFFFFFFFFFFFF AND PUSH20 0xFFFFFFFFFFFFFFFFFFFFFFFFFFFFFFFFFFFFFFFF AND DUP2 MSTORE PUSH1 0x20 ADD PUSH1 0x1 DUP3 ADD DUP1 SLOAD PUSH2 0x64B SWAP1 PUSH2 0xD24 JUMP JUMPDEST DUP1 PUSH1 0x1F ADD PUSH1 0x20 DUP1 SWAP2 DIV MUL PUSH1 0x20 ADD PUSH1 0x40 MLOAD SWAP1 DUP2 ADD PUSH1 0x40 MSTORE DUP1 SWAP3 SWAP2 SWAP1 DUP2 DUP2 MSTORE PUSH1 0x20 ADD DUP3 DUP1 SLOAD PUSH2 0x677 SWAP1 PUSH2 0xD24 JUMP JUMPDEST DUP1 ISZERO PUSH2 0x6C2 JUMPI DUP1 PUSH1 0x1F LT PUSH2 0x699 JUMPI PUSH2 0x100 DUP1 DUP4 SLOAD DIV MUL DUP4 MSTORE SWAP2 PUSH1 0x20 ADD SWAP2 PUSH2 0x6C2 JUMP JUMPDEST DUP3 ADD SWAP2 SWAP1 PUSH0 MSTORE PUSH1 0x20 PUSH0 KECCAK256 SWAP1 JUMPDEST DUP2 SLOAD DUP2 MSTORE SWAP1 PUSH1 0x1 ADD SWAP1 PUSH1 0x20 ADD DUP1 DUP4 GT PUSH2 0x6A5 JUMPI DUP3 SWAP1 SUB PUSH1 0x1F AND DUP3 ADD SWAP2 JUMPDEST POP POP POP POP POP DUP2 MSTORE PUSH1 0x20 ADD PUSH1 0x2 DUP3 ADD SLOAD DUP2 MSTORE POP POP DUP2 MSTORE PUSH1 0x20 ADD SWAP1 PUSH1 0x1 ADD SWAP1 PUSH2 0x5C6 JUMP JUMPDEST POP POP POP POP SWAP1 POP SWAP1 JUMP JUMPDEST POP DUP1 SLOAD PUSH2 0x6F9 SWAP1 PUSH2 0xD24 JUMP JUMPDEST PUSH0 DUP3 SSTORE DUP1 PUSH1 0x1F LT PUSH2 0x70A JUMPI POP PUSH2 0x727 JUMP JUMPDEST PUSH1 0x1F ADD PUSH1 0x20 SWAP1 DIV SWAP1 PUSH0 MSTORE PUSH1 0x20 PUSH0 KECCAK256 SWAP1 DUP2 ADD SWAP1 PUSH2 0x726 SWAP2 SWAP1 PUSH2 0x72A JUMP JUMPDEST JUMPDEST POP JUMP JUMPDEST JUMPDEST DUP1 DUP3 GT ISZERO PUSH2 0x741 JUMPI PUSH0 DUP2 PUSH0 SWAP1 SSTORE POP PUSH1 0x1 ADD PUSH2 0x72B JUMP JUMPDEST POP SWAP1 JUMP JUMPDEST PUSH0 DUP2 SWAP1 POP SWAP2 SWAP1 POP JUMP JUMPDEST PUSH2 0x757 DUP2 PUSH2 0x745 JUMP JUMPDEST DUP3 MSTORE POP POP JUMP JUMPDEST PUSH0 PUSH1 0x20 DUP3 ADD SWAP1 POP PUSH2 0x770 PUSH0 DUP4 ADD DUP5 PUSH2 0x74E JUMP JUMPDEST SWAP3 SWAP2 POP POP JUMP JUMPDEST PUSH0 PUSH1 0x40 MLOAD SWAP1 POP SWAP1 JUMP JUMPDEST PUSH0 PUSH0 REVERT JUMPDEST PUSH0 PUSH0 REVERT JUMPDEST PUSH0 PUSH20 0xFFFFFFFFFFFFFFFFFFFFFFFFFFFFFFFFFFFFFFFF DUP3 AND SWAP1 POP SWAP2 SWAP1 POP JUMP JUMPDEST PUSH0 PUSH2 0x7B0 DUP3 PUSH2 0x787 JUMP JUMPDEST SWAP1 POP SWAP2 SWAP1 POP JUMP JUMPDEST PUSH2 0x7C0 DUP2 PUSH2 0x7A6 JUMP JUMPDEST DUP2 EQ PUSH2 0x7CA JUMPI PUSH0 PUSH0 REVERT JUMPDEST POP JUMP JUMPDEST PUSH0 DUP2 CALLDATALOAD SWAP1 POP PUSH2 0x7DB DUP2 PUSH2 0x7B7 JUMP JUMPDEST SWAP3 SWAP2 POP POP JUMP JUMPDEST PUSH0 PUSH1 0x20 DUP3 DUP5 SUB SLT ISZERO PUSH2 0x7F6 JUMPI PUSH2 0x7F5 PUSH2 0x77F JUMP JUMPDEST JUMPDEST PUSH0 PUSH2 0x803 DUP5 DUP3 DUP6 ADD PUSH2 0x7CD JUMP JUMPDEST SWAP2 POP POP SWAP3 SWAP2 POP POP JUMP JUMPDEST PUSH0 PUSH2 0x816 DUP3 PUSH2 0x787 JUMP JUMPDEST SWAP1 POP SWAP2 SWAP1 POP JUMP JUMPDEST PUSH2 0x826 DUP2 PUSH2 0x80C JUMP JUMPDEST DUP2 EQ PUSH2 0x830 JUMPI PUSH0 PUSH0 REVERT JUMPDEST POP JUMP JUMPDEST PUSH0 DUP2 CALLDATALOAD SWAP1 POP PUSH2 0x841 DUP2 PUSH2 0x81D JUMP JUMPDEST SWAP3 SWAP2 POP POP JUMP JUMPDEST PUSH0 PUSH0 REVERT JUMPDEST PUSH0 PUSH0 REVERT JUMPDEST PUSH0 PUSH1 0x1F NOT PUSH1 0x1F DUP4 ADD AND SWAP1 POP SWAP2 SWAP1 POP JUMP JUMPDEST PUSH32 0x4E487B7100000000000000000000000000000000000000000000000000000000 PUSH0 MSTORE PUSH1 0x41 PUSH1 0x4 MSTORE PUSH1 0x24 PUSH0 REVERT JUMPDEST PUSH2 0x895 DUP3 PUSH2 0x84F JUMP JUMPDEST DUP2 ADD DUP2 DUP2 LT PUSH8 0xFFFFFFFFFFFFFFFF DUP3 GT OR ISZERO PUSH2 0x8B4 JUMPI PUSH2 0x8B3 PUSH2 0x85F JUMP JUMPDEST JUMPDEST DUP1 PUSH1 0x40 MSTORE POP POP POP JUMP JUMPDEST PUSH0 PUSH2 0x8C6 PUSH2 0x776 JUMP JUMPDEST SWAP1 POP PUSH2 0x8D2 DUP3 DUP3 PUSH2 0x88C JUMP JUMPDEST SWAP2 SWAP1 POP JUMP JUMPDEST PUSH0 PUSH8 0xFFFFFFFFFFFFFFFF DUP3 GT ISZERO PUSH2 0x8F1 JUMPI PUSH2 0x8F0 PUSH2 0x85F JUMP JUMPDEST JUMPDEST PUSH2 0x8FA DUP3 PUSH2 0x84F JUMP JUMPDEST SWAP1 POP PUSH1 0x20 DUP2 ADD SWAP1 POP SWAP2 SWAP1 POP JUMP JUMPDEST DUP3 DUP2 DUP4 CALLDATACOPY PUSH0 DUP4 DUP4 ADD MSTORE POP POP POP JUMP JUMPDEST PUSH0 PUSH2 0x927 PUSH2 0x922 DUP5 PUSH2 0x8D7 JUMP JUMPDEST PUSH2 0x8BD JUMP JUMPDEST SWAP1 POP DUP3 DUP2 MSTORE PUSH1 0x20 DUP2 ADD DUP5 DUP5 DUP5 ADD GT ISZERO PUSH2 0x943 JUMPI PUSH2 0x942 PUSH2 0x84B JUMP JUMPDEST JUMPDEST PUSH2 0x94E DUP5 DUP3 DUP6 PUSH2 0x907 JUMP JUMPDEST POP SWAP4 SWAP3 POP POP POP JUMP JUMPDEST PUSH0 DUP3 PUSH1 0x1F DUP4 ADD SLT PUSH2 0x96A JUMPI PUSH2 0x969 PUSH2 0x847 JUMP JUMPDEST JUMPDEST DUP2 CALLDATALOAD PUSH2 0x97A DUP5 DUP3 PUSH1 0x20 DUP7 ADD PUSH2 0x915 JUMP JUMPDEST SWAP2 POP POP SWAP3 SWAP2 POP POP JUMP JUMPDEST PUSH2 0x98C DUP2 PUSH2 0x745 JUMP JUMPDEST DUP2 EQ PUSH2 0x996 JUMPI PUSH0 PUSH0 REVERT JUMPDEST POP JUMP JUMPDEST PUSH0 DUP2 CALLDATALOAD SWAP1 POP PUSH2 0x9A7 DUP2 PUSH2 0x983 JUMP JUMPDEST SWAP3 SWAP2 POP POP JUMP JUMPDEST PUSH0 PUSH0 PUSH0 PUSH1 0x60 DUP5 DUP7 SUB SLT ISZERO PUSH2 0x9C4 JUMPI PUSH2 0x9C3 PUSH2 0x77F JUMP JUMPDEST JUMPDEST PUSH0 PUSH2 0x9D1 DUP7 DUP3 DUP8 ADD PUSH2 0x833 JUMP JUMPDEST SWAP4 POP POP PUSH1 0x20 DUP5 ADD CALLDATALOAD PUSH8 0xFFFFFFFFFFFFFFFF DUP2 GT ISZERO PUSH2 0x9F2 JUMPI PUSH2 0x9F1 PUSH2 0x783 JUMP JUMPDEST JUMPDEST PUSH2 0x9FE DUP7 DUP3 DUP8 ADD PUSH2 0x956 JUMP JUMPDEST SWAP3 POP POP PUSH1 0x40 PUSH2 0xA0F DUP7 DUP3 DUP8 ADD PUSH2 0x999 JUMP JUMPDEST SWAP2 POP POP SWAP3 POP SWAP3 POP SWAP3 JUMP JUMPDEST PUSH0 DUP2 MLOAD SWAP1 POP SWAP2 SWAP1 POP JUMP JUMPDEST PUSH0 DUP3 DUP3 MSTORE PUSH1 0x20 DUP3 ADD SWAP1 POP SWAP3 SWAP2 POP POP JUMP JUMPDEST PUSH0 DUP2 SWAP1 POP PUSH1 0x20 DUP3 ADD SWAP1 POP SWAP2 SWAP1 POP JUMP JUMPDEST PUSH2 0xA4B DUP2 PUSH2 0x80C JUMP JUMPDEST DUP3 MSTORE POP POP JUMP JUMPDEST PUSH0 DUP2 MLOAD SWAP1 POP SWAP2 SWAP1 POP JUMP JUMPDEST PUSH0 DUP3 DUP3 MSTORE PUSH1 0x20 DUP3 ADD SWAP1 POP SWAP3 SWAP2 POP POP JUMP JUMPDEST DUP3 DUP2 DUP4 MCOPY PUSH0 DUP4 DUP4 ADD MSTORE POP POP POP JUMP JUMPDEST PUSH0 PUSH2 0xA83 DUP3 PUSH2 0xA51 JUMP JUMPDEST PUSH2 0xA8D DUP2 DUP6 PUSH2 0xA5B JUMP JUMPDEST SWAP4 POP PUSH2 0xA9D DUP2 DUP6 PUSH1 0x20 DUP7 ADD PUSH2 0xA6B JUMP JUMPDEST PUSH2 0xAA6 DUP2 PUSH2 0x84F JUMP JUMPDEST DUP5 ADD SWAP2 POP POP SWAP3 SWAP2 POP POP JUMP JUMPDEST PUSH2 0xABA DUP2 PUSH2 0x745 JUMP JUMPDEST DUP3 MSTORE POP POP JUMP JUMPDEST PUSH0 PUSH1 0x60 DUP4 ADD PUSH0 DUP4 ADD MLOAD PUSH2 0xAD5 PUSH0 DUP7 ADD DUP3 PUSH2 0xA42 JUMP JUMPDEST POP PUSH1 0x20 DUP4 ADD MLOAD DUP5 DUP3 SUB PUSH1 0x20 DUP7 ADD MSTORE PUSH2 0xAED DUP3 DUP3 PUSH2 0xA79 JUMP JUMPDEST SWAP2 POP POP PUSH1 0x40 DUP4 ADD MLOAD PUSH2 0xB02 PUSH1 0x40 DUP7 ADD DUP3 PUSH2 0xAB1 JUMP JUMPDEST POP DUP1 SWAP2 POP POP SWAP3 SWAP2 POP POP JUMP JUMPDEST PUSH0 PUSH2 0xB18 DUP4 DUP4 PUSH2 0xAC0 JUMP JUMPDEST SWAP1 POP SWAP3 SWAP2 POP POP JUMP JUMPDEST PUSH0 PUSH1 0x20 DUP3 ADD SWAP1 POP SWAP2 SWAP1 POP JUMP JUMPDEST PUSH0 PUSH2 0xB36 DUP3 PUSH2 0xA19 JUMP JUMPDEST PUSH2 0xB40 DUP2 DUP6 PUSH2 0xA23 JUMP JUMPDEST SWAP4 POP DUP4 PUSH1 0x20 DUP3 MUL DUP6 ADD PUSH2 0xB52 DUP6 PUSH2 0xA33 JUMP JUMPDEST DUP1 PUSH0 JUMPDEST DUP6 DUP2 LT ISZERO PUSH2 0xB8D JUMPI DUP5 DUP5 SUB DUP10 MSTORE DUP2 MLOAD PUSH2 0xB6E DUP6 DUP3 PUSH2 0xB0D JUMP JUMPDEST SWAP5 POP PUSH2 0xB79 DUP4 PUSH2 0xB20 JUMP JUMPDEST SWAP3 POP PUSH1 0x20 DUP11 ADD SWAP10 POP POP PUSH1 0x1 DUP2 ADD SWAP1 POP PUSH2 0xB55 JUMP JUMPDEST POP DUP3 SWAP8 POP DUP8 SWAP6 POP POP POP POP POP POP SWAP3 SWAP2 POP POP JUMP JUMPDEST PUSH0 PUSH1 0x20 DUP3 ADD SWAP1 POP DUP2 DUP2 SUB PUSH0 DUP4 ADD MSTORE PUSH2 0xBB7 DUP2 DUP5 PUSH2 0xB2C JUMP JUMPDEST SWAP1 POP SWAP3 SWAP2 POP POP JUMP JUMPDEST PUSH0 DUP3 DUP3 MSTORE PUSH1 0x20 DUP3 ADD SWAP1 POP SWAP3 SWAP2 POP POP JUMP JUMPDEST PUSH32 0x4F6E6C79206F776E65722063616E2063616C6C00000000000000000000000000 PUSH0 DUP3 ADD MSTORE POP JUMP JUMPDEST PUSH0 PUSH2 0xC03 PUSH1 0x13 DUP4 PUSH2 0xBBF JUMP JUMPDEST SWAP2 POP PUSH2 0xC0E DUP3 PUSH2 0xBCF JUMP JUMPDEST PUSH1 0x20 DUP3 ADD SWAP1 POP SWAP2 SWAP1 POP JUMP JUMPDEST PUSH0 PUSH1 0x20 DUP3 ADD SWAP1 POP DUP2 DUP2 SUB PUSH0 DUP4 ADD MSTORE PUSH2 0xC30 DUP2 PUSH2 0xBF7 JUMP JUMPDEST SWAP1 POP SWAP2 SWAP1 POP JUMP JUMPDEST PUSH32 0x4E487B7100000000000000000000000000000000000000000000000000000000 PUSH0 MSTORE PUSH1 0x32 PUSH1 0x4 MSTORE PUSH1 0x24 PUSH0 REVERT JUMPDEST PUSH32 0x4E487B7100000000000000000000000000000000000000000000000000000000 PUSH0 MSTORE PUSH1 0x11 PUSH1 0x4 MSTORE PUSH1 0x24 PUSH0 REVERT JUMPDEST PUSH0 PUSH2 0xC9B DUP3 PUSH2 0x745 JUMP JUMPDEST SWAP2 POP PUSH2 0xCA6 DUP4 PUSH2 0x745 JUMP JUMPDEST SWAP3 POP DUP3 DUP3 SUB SWAP1 POP DUP2 DUP2 GT ISZERO PUSH2 0xCBE JUMPI PUSH2 0xCBD PUSH2 0xC64 JUMP JUMPDEST JUMPDEST SWAP3 SWAP2 POP POP JUMP JUMPDEST PUSH0 PUSH2 0xCCE DUP3 PUSH2 0x745 JUMP JUMPDEST SWAP2 POP PUSH2 0xCD9 DUP4 PUSH2 0x745 JUMP JUMPDEST SWAP3 POP DUP3 DUP3 ADD SWAP1 POP DUP1 DUP3 GT ISZERO PUSH2 0xCF1 JUMPI PUSH2 0xCF0 PUSH2 0xC64 JUMP JUMPDEST JUMPDEST SWAP3 SWAP2 POP POP JUMP JUMPDEST PUSH32 0x4E487B7100000000000000000000000000000000000000000000000000000000 PUSH0 MSTORE PUSH1 0x22 PUSH1 0x4 MSTORE PUSH1 0x24 PUSH0 REVERT JUMPDEST PUSH0 PUSH1 0x2 DUP3 DIV SWAP1 POP PUSH1 0x1 DUP3 AND DUP1 PUSH2 0xD3B JUMPI PUSH1 0x7F DUP3 AND SWAP2 POP JUMPDEST PUSH1 0x20 DUP3 LT DUP2 SUB PUSH2 0xD4E JUMPI PUSH2 0xD4D PUSH2 0xCF7 JUMP JUMPDEST JUMPDEST POP SWAP2 SWAP1 POP JUMP JUMPDEST PUSH0 DUP2 SLOAD SWAP1 POP PUSH2 0xD62 DUP2 PUSH2 0xD24 JUMP JUMPDEST SWAP1 POP SWAP2 SWAP1 POP JUMP JUMPDEST PUSH0 DUP2 SWAP1 POP DUP2 PUSH0 MSTORE PUSH1 0x20 PUSH0 KECCAK256 SWAP1 POP SWAP2 SWAP1 POP JUMP JUMPDEST PUSH0 PUSH1 0x20 PUSH1 0x1F DUP4 ADD DIV SWAP1 POP SWAP2 SWAP1 POP JUMP JUMPDEST PUSH0 DUP3 DUP3 SHL SWAP1 POP SWAP3 SWAP2 POP POP JUMP JUMPDEST PUSH0 PUSH1 0x8 DUP4 MUL PUSH2 0xDC5 PUSH32 0xFFFFFFFFFFFFFFFFFFFFFFFFFFFFFFFFFFFFFFFFFFFFFFFFFFFFFFFFFFFFFFFF DUP3 PUSH2 0xD8A JUMP JUMPDEST PUSH2 0xDCF DUP7 DUP4 PUSH2 0xD8A JUMP JUMPDEST SWAP6 POP DUP1 NOT DUP5 AND SWAP4 POP DUP1 DUP7 AND DUP5 OR SWAP3 POP POP POP SWAP4 SWAP3 POP POP POP JUMP JUMPDEST PUSH0 DUP2 SWAP1 POP SWAP2 SWAP1 POP JUMP JUMPDEST PUSH0 PUSH2 0xE0A PUSH2 0xE05 PUSH2 0xE00 DUP5 PUSH2 0x745 JUMP JUMPDEST PUSH2 0xDE7 JUMP JUMPDEST PUSH2 0x745 JUMP JUMPDEST SWAP1 POP SWAP2 SWAP1 POP JUMP JUMPDEST PUSH0 DUP2 SWAP1 POP SWAP2 SWAP1 POP JUMP JUMPDEST PUSH2 0xE23 DUP4 PUSH2 0xDF0 JUMP JUMPDEST PUSH2 0xE37 PUSH2 0xE2F DUP3 PUSH2 0xE11 JUMP JUMPDEST DUP5 DUP5 SLOAD PUSH2 0xD96 JUMP JUMPDEST DUP3 SSTORE POP POP POP POP JUMP JUMPDEST PUSH0 PUSH0 SWAP1 POP SWAP1 JUMP JUMPDEST PUSH2 0xE4E PUSH2 0xE3F JUMP JUMPDEST PUSH2 0xE59 DUP2 DUP5 DUP5 PUSH2 0xE1A JUMP JUMPDEST POP POP POP JUMP JUMPDEST JUMPDEST DUP2 DUP2 LT ISZERO PUSH2 0xE7C JUMPI PUSH2 0xE71 PUSH0 DUP3 PUSH2 0xE46 JUMP JUMPDEST PUSH1 0x1 DUP2 ADD SWAP1 POP PUSH2 0xE5F JUMP JUMPDEST POP POP JUMP JUMPDEST PUSH1 0x1F DUP3 GT ISZERO PUSH2 0xEC1 JUMPI PUSH2 0xE92 DUP2 PUSH2 0xD69 JUMP JUMPDEST PUSH2 0xE9B DUP5 PUSH2 0xD7B JUMP JUMPDEST DUP2 ADD PUSH1 0x20 DUP6 LT ISZERO PUSH2 0xEAA JUMPI DUP2 SWAP1 POP JUMPDEST PUSH2 0xEBE PUSH2 0xEB6 DUP6 PUSH2 0xD7B JUMP JUMPDEST DUP4 ADD DUP3 PUSH2 0xE5E JUMP JUMPDEST POP POP JUMPDEST POP POP POP JUMP JUMPDEST PUSH0 DUP3 DUP3 SHR SWAP1 POP SWAP3 SWAP2 POP POP JUMP JUMPDEST PUSH0 PUSH2 0xEE1 PUSH0 NOT DUP5 PUSH1 0x8 MUL PUSH2 0xEC6 JUMP JUMPDEST NOT DUP1 DUP4 AND SWAP2 POP POP SWAP3 SWAP2 POP POP JUMP JUMPDEST PUSH0 PUSH2 0xEF9 DUP4 DUP4 PUSH2 0xED2 JUMP JUMPDEST SWAP2 POP DUP3 PUSH1 0x2 MUL DUP3 OR SWAP1 POP SWAP3 SWAP2 POP POP JUMP JUMPDEST DUP2 DUP2 SUB PUSH2 0xF17 JUMPI POP POP PUSH2 0xFEC JUMP JUMPDEST PUSH2 0xF20 DUP3 PUSH2 0xD54 JUMP JUMPDEST PUSH8 0xFFFFFFFFFFFFFFFF DUP2 GT ISZERO PUSH2 0xF39 JUMPI PUSH2 0xF38 PUSH2 0x85F JUMP JUMPDEST JUMPDEST PUSH2 0xF43 DUP3 SLOAD PUSH2 0xD24 JUMP JUMPDEST PUSH2 0xF4E DUP3 DUP3 DUP6 PUSH2 0xE80 JUMP JUMPDEST PUSH0 PUSH1 0x1F DUP4 GT PUSH1 0x1 DUP2 EQ PUSH2 0xF7B JUMPI PUSH0 DUP5 ISZERO PUSH2 0xF69 JUMPI DUP3 DUP8 ADD SLOAD SWAP1 POP JUMPDEST PUSH2 0xF73 DUP6 DUP3 PUSH2 0xEEE JUMP JUMPDEST DUP7 SSTORE POP PUSH2 0xFE5 JUMP JUMPDEST PUSH1 0x1F NOT DUP5 AND PUSH2 0xF89 DUP8 PUSH2 0xD69 JUMP JUMPDEST SWAP7 POP PUSH2 0xF94 DUP7 PUSH2 0xD69 JUMP JUMPDEST PUSH0 JUMPDEST DUP3 DUP2 LT ISZERO PUSH2 0xFBB JUMPI DUP5 DUP10 ADD SLOAD DUP3 SSTORE PUSH1 0x1 DUP3 ADD SWAP2 POP PUSH1 0x1 DUP6 ADD SWAP5 POP PUSH1 0x20 DUP2 ADD SWAP1 POP PUSH2 0xF96 JUMP JUMPDEST DUP7 DUP4 LT ISZERO PUSH2 0xFD8 JUMPI DUP5 DUP10 ADD SLOAD PUSH2 0xFD4 PUSH1 0x1F DUP10 AND DUP3 PUSH2 0xED2 JUMP JUMPDEST DUP4 SSTORE POP JUMPDEST PUSH1 0x1 PUSH1 0x2 DUP9 MUL ADD DUP9 SSTORE POP POP POP JUMPDEST POP POP POP POP POP POP JUMPDEST JUMP JUMPDEST PUSH32 0x4E487B7100000000000000000000000000000000000000000000000000000000 PUSH0 MSTORE PUSH1 0x31 PUSH1 0x4 MSTORE PUSH1 0x24 PUSH0 REVERT JUMPDEST PUSH2 0x1024 DUP3 PUSH2 0xA51 JUMP JUMPDEST PUSH8 0xFFFFFFFFFFFFFFFF DUP2 GT ISZERO PUSH2 0x103D JUMPI PUSH2 0x103C PUSH2 0x85F JUMP JUMPDEST JUMPDEST PUSH2 0x1047 DUP3 SLOAD PUSH2 0xD24 JUMP JUMPDEST PUSH2 0x1052 DUP3 DUP3 DUP6 PUSH2 0xE80 JUMP JUMPDEST PUSH0 PUSH1 0x20 SWAP1 POP PUSH1 0x1F DUP4 GT PUSH1 0x1 DUP2 EQ PUSH2 0x1083 JUMPI PUSH0 DUP5 ISZERO PUSH2 0x1071 JUMPI DUP3 DUP8 ADD MLOAD SWAP1 POP JUMPDEST PUSH2 0x107B DUP6 DUP3 PUSH2 0xEEE JUMP JUMPDEST DUP7 SSTORE POP PUSH2 0x10E2 JUMP JUMPDEST PUSH1 0x1F NOT DUP5 AND PUSH2 0x1091 DUP7 PUSH2 0xD69 JUMP JUMPDEST PUSH0 JUMPDEST DUP3 DUP2 LT ISZERO PUSH2 0x10B8 JUMPI DUP5 DUP10 ADD MLOAD DUP3 SSTORE PUSH1 0x1 DUP3 ADD SWAP2 POP PUSH1 0x20 DUP6 ADD SWAP5 POP PUSH1 0x20 DUP2 ADD SWAP1 POP PUSH2 0x1093 JUMP JUMPDEST DUP7 DUP4 LT ISZERO PUSH2 0x10D5 JUMPI DUP5 DUP10 ADD MLOAD PUSH2 0x10D1 PUSH1 0x1F DUP10 AND DUP3 PUSH2 0xED2 JUMP JUMPDEST DUP4 SSTORE POP JUMPDEST PUSH1 0x1 PUSH1 0x2 DUP9 MUL ADD DUP9 SSTORE POP POP POP JUMPDEST POP POP POP POP POP POP JUMP INVALID LOG2 PUSH5 0x6970667358 0x22 SLT KECCAK256 0x2A PUSH23 0x5BACE91C45F34AA56DB981392FFB2FF321C10E1E117352 BYTE 0xCA 0xBE CALLVALUE 0xA9 0xB7 SIGNEXTEND PUSH5 0x736F6C6343 STOP ADDMOD 0x1F STOP CALLER "
				},
				"gasEstimates": {
					"creation": {
						"codeDepositCost": "876800",
						"executionCost": "25171",
						"totalCost": "901971"
					},
					"external": {
						"addWaitress(address,string,uint256)": "infinite",
						"addtips()": "141",
						"removeWaitress(address)": "infinite",
						"viewWaitress()": "infinite",
						"viewtips()": "312"
					}
				},
				"methodIdentifiers": {
					"addWaitress(address,string,uint256)": "b499b79a",
					"addtips()": "6e7301fd",
					"removeWaitress(address)": "369a489d",
					"viewWaitress()": "e83a1b00",
					"viewtips()": "2a08deda"
				}
			},
			"storageLayout": {
				"storage": [
					{
						"astId": 3,
						"contract": "tipjar.sol:tips",
						"label": "owner",
						"offset": 0,
						"slot": "0",
						"type": "t_address"
					},
					{
						"astId": 39,
						"contract": "tipjar.sol:tips",
						"label": "waitress",
						"offset": 0,
						"slot": "1",
						"type": "t_array(t_struct(Waitress)35_storage)dyn_storage"
					}
				],
				"types": {
					"t_address": {
						"encoding": "inplace",
						"label": "address",
						"numberOfBytes": "20"
					},
					"t_address_payable": {
						"encoding": "inplace",
						"label": "address payable",
						"numberOfBytes": "20"
					},
					"t_array(t_struct(Waitress)35_storage)dyn_storage": {
						"base": "t_struct(Waitress)35_storage",
						"encoding": "dynamic_array",
						"label": "struct tips.Waitress[]",
						"numberOfBytes": "32"
					},
					"t_string_storage": {
						"encoding": "bytes",
						"label": "string",
						"numberOfBytes": "32"
					},
					"t_struct(Waitress)35_storage": {
						"encoding": "inplace",
						"label": "struct tips.Waitress",
						"members": [
							{
								"astId": 30,
								"contract": "tipjar.sol:tips",
								"label": "walletAddress",
								"offset": 0,
								"slot": "0",
								"type": "t_address_payable"
							},
							{
								"astId": 32,
								"contract": "tipjar.sol:tips",
								"label": "name",
								"offset": 0,
								"slot": "1",
								"type": "t_string_storage"
							},
							{
								"astId": 34,
								"contract": "tipjar.sol:tips",
								"label": "percent",
								"offset": 0,
								"slot": "2",
								"type": "t_uint256"
							}
						],
						"numberOfBytes": "96"
					},
					"t_uint256": {
						"encoding": "inplace",
						"label": "uint256",
						"numberOfBytes": "32"
					}
				}
			},
			"userdoc": {
				"kind": "user",
				"methods": {},
				"version": 1
			}
		}
	}
}